{
  "contractName": "AutoCompound",
  "abi": [
    {
      "inputs": [
        {
          "internalType": "address",
          "name": "assetContract_",
          "type": "address"
        },
        {
          "internalType": "contract LPStaking",
          "name": "_lpstaking",
          "type": "address"
        }
      ],
      "stateMutability": "nonpayable",
      "type": "constructor"
    },
    {
      "anonymous": false,
      "inputs": [
        {
          "indexed": false,
          "internalType": "address",
          "name": "account",
          "type": "address"
        },
        {
          "indexed": false,
          "internalType": "uint256",
          "name": "depositOgs",
          "type": "uint256"
        },
        {
          "indexed": false,
          "internalType": "uint256",
          "name": "depositShares",
          "type": "uint256"
        },
        {
          "indexed": false,
          "internalType": "uint256",
          "name": "accountCurrentShares",
          "type": "uint256"
        }
      ],
      "name": "ClientDeposit",
      "type": "event"
    },
    {
      "anonymous": false,
      "inputs": [
        {
          "indexed": false,
          "internalType": "address",
          "name": "account",
          "type": "address"
        },
        {
          "indexed": false,
          "internalType": "uint256",
          "name": "withdrawOgs",
          "type": "uint256"
        },
        {
          "indexed": false,
          "internalType": "uint256",
          "name": "withdrawShares",
          "type": "uint256"
        },
        {
          "indexed": false,
          "internalType": "uint256",
          "name": "accountCurrentShares",
          "type": "uint256"
        }
      ],
      "name": "ClientWithdraw",
      "type": "event"
    },
    {
      "anonymous": false,
      "inputs": [
        {
          "indexed": false,
          "internalType": "address",
          "name": "account",
          "type": "address"
        },
        {
          "indexed": false,
          "internalType": "uint256",
          "name": "timestamp",
          "type": "uint256"
        }
      ],
      "name": "Harvest",
      "type": "event"
    },
    {
      "anonymous": false,
      "inputs": [
        {
          "indexed": true,
          "internalType": "address",
          "name": "previousOwner",
          "type": "address"
        },
        {
          "indexed": true,
          "internalType": "address",
          "name": "newOwner",
          "type": "address"
        }
      ],
      "name": "OwnershipTransferred",
      "type": "event"
    },
    {
      "anonymous": false,
      "inputs": [
        {
          "indexed": false,
          "internalType": "address",
          "name": "account",
          "type": "address"
        }
      ],
      "name": "Paused",
      "type": "event"
    },
    {
      "anonymous": false,
      "inputs": [
        {
          "indexed": false,
          "internalType": "address",
          "name": "account",
          "type": "address"
        }
      ],
      "name": "Unpaused",
      "type": "event"
    },
    {
      "inputs": [],
      "name": "assetContract",
      "outputs": [
        {
          "internalType": "address",
          "name": "",
          "type": "address"
        }
      ],
      "stateMutability": "view",
      "type": "function"
    },
    {
      "inputs": [],
      "name": "ogsContract",
      "outputs": [
        {
          "internalType": "address",
          "name": "",
          "type": "address"
        }
      ],
      "stateMutability": "view",
      "type": "function"
    },
    {
      "inputs": [],
      "name": "owner",
      "outputs": [
        {
          "internalType": "address",
          "name": "",
          "type": "address"
        }
      ],
      "stateMutability": "view",
      "type": "function"
    },
    {
      "inputs": [],
      "name": "paused",
      "outputs": [
        {
          "internalType": "bool",
          "name": "",
          "type": "bool"
        }
      ],
      "stateMutability": "view",
      "type": "function"
    },
    {
      "inputs": [],
      "name": "renounceOwnership",
      "outputs": [],
      "stateMutability": "nonpayable",
      "type": "function"
    },
    {
      "inputs": [
        {
          "internalType": "address",
          "name": "newOwner",
          "type": "address"
        }
      ],
      "name": "transferOwnership",
      "outputs": [],
      "stateMutability": "nonpayable",
      "type": "function"
    },
    {
      "inputs": [],
      "name": "pause",
      "outputs": [],
      "stateMutability": "nonpayable",
      "type": "function"
    },
    {
      "inputs": [],
      "name": "unpause",
      "outputs": [],
      "stateMutability": "nonpayable",
      "type": "function"
    },
    {
      "inputs": [],
      "name": "available",
      "outputs": [
        {
          "internalType": "uint256",
          "name": "",
          "type": "uint256"
        }
      ],
      "stateMutability": "view",
      "type": "function"
    },
    {
      "inputs": [],
      "name": "balanceOf",
      "outputs": [
        {
          "internalType": "uint256",
          "name": "",
          "type": "uint256"
        }
      ],
      "stateMutability": "view",
      "type": "function"
    },
    {
      "inputs": [],
      "name": "harvest",
      "outputs": [],
      "stateMutability": "nonpayable",
      "type": "function"
    },
    {
      "inputs": [
        {
          "internalType": "uint256",
          "name": "amount",
          "type": "uint256"
        }
      ],
      "name": "clientDeposit",
      "outputs": [],
      "stateMutability": "nonpayable",
      "type": "function"
    },
    {
      "inputs": [
        {
          "internalType": "uint256",
          "name": "shares",
          "type": "uint256"
        }
      ],
      "name": "clientWithdraw",
      "outputs": [],
      "stateMutability": "nonpayable",
      "type": "function"
    },
    {
      "inputs": [],
      "name": "clientWithdrawAll",
      "outputs": [],
      "stateMutability": "nonpayable",
      "type": "function"
    },
    {
      "inputs": [],
      "name": "agentTotalPendingOgsRewards",
      "outputs": [
        {
          "internalType": "uint256",
          "name": "",
          "type": "uint256"
        }
      ],
      "stateMutability": "view",
      "type": "function"
    },
    {
      "inputs": [],
      "name": "getOgsPerAgentShare",
      "outputs": [
        {
          "internalType": "uint256",
          "name": "",
          "type": "uint256"
        }
      ],
      "stateMutability": "view",
      "type": "function"
    }
  ],
  "bytecode": "0x60c0604052600060045534801561001557600080fd5b506040516200224c3803806200224c8339818101604052604081101561003a57600080fd5b810190808051906020019092919080519060200190929190505050600061006561022160201b60201c565b9050806000806101000a81548173ffffffffffffffffffffffffffffffffffffffff021916908373ffffffffffffffffffffffffffffffffffffffff1602179055508073ffffffffffffffffffffffffffffffffffffffff16600073ffffffffffffffffffffffffffffffffffffffff167f8be0079c531659141344cd1fd0a4f28419497f9722a3daafe3b4186f6b6457e060405160405180910390a350600180819055506000600260006101000a81548160ff021916908315150217905550600073ffffffffffffffffffffffffffffffffffffffff168273ffffffffffffffffffffffffffffffffffffffff1614156101ac576040517f08c379a000000000000000000000000000000000000000000000000000000000815260040180806020018281038252602d8152602001806200221f602d913960400191505060405180910390fd5b8173ffffffffffffffffffffffffffffffffffffffff1660808173ffffffffffffffffffffffffffffffffffffffff1660601b815250508073ffffffffffffffffffffffffffffffffffffffff1660a08173ffffffffffffffffffffffffffffffffffffffff1660601b815250505050610229565b600033905090565b60805160601c60a05160601c611fa46200027b60003980610645528061091e5280610ad95280610cc4528061178052508061071a5280610a0f5280610bc05280610d8c528061108e5250611fa46000f3fe608060405234801561001057600080fd5b50600436106101005760003560e01c8063715018a6116100975780639f448dfd116100665780639f448dfd14610247578063a2cff4a11461027b578063bd53d5cc14610299578063f2fde38b146102c757610100565b8063715018a6146101e1578063722713f7146101eb5780638456cb59146102095780638da5cb5b1461021357610100565b806348a0d754116100d357806348a0d754146101515780634c22cd211461016f5780634d16304f1461018d5780635c975abb146101c157610100565b806314e8093f146101055780633a3cd0621461010f5780633f4ba83a1461013d5780634641257d14610147575b600080fd5b61010d61030b565b005b61013b6004803603602081101561012557600080fd5b81019080803590602001909291905050506103dd565b005b61014561080e565b005b61014f610820565b005b610159610a0b565b6040518082815260200191505060405180910390f35b610177610ad4565b6040518082815260200191505060405180910390f35b610195610bbe565b604051808273ffffffffffffffffffffffffffffffffffffffff16815260200191505060405180910390f35b6101c9610be2565b60405180821515815260200191505060405180910390f35b6101e9610bf9565b005b6101f3610cbf565b6040518082815260200191505060405180910390f35b610211610e60565b005b61021b610e72565b604051808273ffffffffffffffffffffffffffffffffffffffff16815260200191505060405180910390f35b61024f610e9b565b604051808273ffffffffffffffffffffffffffffffffffffffff16815260200191505060405180910390f35b610283610eb3565b6040518082815260200191505060405180910390f35b6102c5600480360360208110156102af57600080fd5b8101908080359060200190929190505050610f08565b005b610309600480360360208110156102dd57600080fd5b81019080803573ffffffffffffffffffffffffffffffffffffffff169060200190929190505050611225565b005b60026001541415610384576040517f08c379a000000000000000000000000000000000000000000000000000000000815260040180806020018281038252601f8152602001807f5265656e7472616e637947756172643a207265656e7472616e742063616c6c0081525060200191505060405180910390fd5b60026001819055506103d4600360003373ffffffffffffffffffffffffffffffffffffffff1673ffffffffffffffffffffffffffffffffffffffff168152602001908152602001600020546103dd565b60018081905550565b60026001541415610456576040517f08c379a000000000000000000000000000000000000000000000000000000000815260040180806020018281038252601f8152602001807f5265656e7472616e637947756172643a207265656e7472616e742063616c6c0081525060200191505060405180910390fd5b6002600181905550600081116104d4576040517f08c379a00000000000000000000000000000000000000000000000000000000081526004018080602001828103825260138152602001807f6e6f7468696e6720746f2077697468647261770000000000000000000000000081525060200191505060405180910390fd5b600360003373ffffffffffffffffffffffffffffffffffffffff1673ffffffffffffffffffffffffffffffffffffffff16815260200190815260200160002054811115610589576040517f08c379a00000000000000000000000000000000000000000000000000000000081526004018080602001828103825260108152602001807f62616c616e63652065786365656465640000000000000000000000000000000081525060200191505060405180910390fd5b60006105b96004546105ab8461059d610cbf565b61137090919063ffffffff16565b6113f690919063ffffffff16565b905081600360003373ffffffffffffffffffffffffffffffffffffffff1673ffffffffffffffffffffffffffffffffffffffff16815260200190815260200160002060008282540392505081905550816004600082825403925050819055506000610622610a0b565b905081811015610713576000610641828461144090919063ffffffff16565b90507f000000000000000000000000000000000000000000000000000000000000000073ffffffffffffffffffffffffffffffffffffffff16632e1a7d4d826040518263ffffffff1660e01b815260040180828152602001915050600060405180830381600087803b1580156106b657600080fd5b505af11580156106ca573d6000803e3d6000fd5b5050505060006106d8610a0b565b905060006106ef848361144090919063ffffffff16565b90508281101561070f5761070c818561148a90919063ffffffff16565b94505b5050505b61075e33837f000000000000000000000000000000000000000000000000000000000000000073ffffffffffffffffffffffffffffffffffffffff166115129092919063ffffffff16565b7f6f9a4b7389891d0f76e36fb6ec6b6b0013c55d1f0a06a9d32defd4ba1ac2b58a338385600360003373ffffffffffffffffffffffffffffffffffffffff1673ffffffffffffffffffffffffffffffffffffffff16815260200190815260200160002054604051808573ffffffffffffffffffffffffffffffffffffffff16815260200184815260200183815260200182815260200194505050505060405180910390a150506001808190555050565b6108166115b4565b61081e61167e565b565b60026001541415610899576040517f08c379a000000000000000000000000000000000000000000000000000000000815260040180806020018281038252601f8152602001807f5265656e7472616e637947756172643a207265656e7472616e742063616c6c0081525060200191505060405180910390fd5b60026001819055506108a9610be2565b1561091c576040517f08c379a00000000000000000000000000000000000000000000000000000000081526004018080602001828103825260108152602001807f5061757361626c653a207061757365640000000000000000000000000000000081525060200191505060405180910390fd5b7f000000000000000000000000000000000000000000000000000000000000000073ffffffffffffffffffffffffffffffffffffffff1663372500ab6040518163ffffffff1660e01b8152600401600060405180830381600087803b15801561098457600080fd5b505af1158015610998573d6000803e3d6000fd5b505050506109a4611769565b426005819055507fc9695243a805adb74c91f28311176c65b417e842d5699893cef56d18bfa48cba33600554604051808373ffffffffffffffffffffffffffffffffffffffff1681526020018281526020019250505060405180910390a160018081905550565b60007f000000000000000000000000000000000000000000000000000000000000000073ffffffffffffffffffffffffffffffffffffffff166370a08231306040518263ffffffff1660e01b8152600401808273ffffffffffffffffffffffffffffffffffffffff16815260200191505060206040518083038186803b158015610a9457600080fd5b505afa158015610aa8573d6000803e3d6000fd5b505050506040513d6020811015610abe57600080fd5b8101908080519060200190929190505050905090565b6000807f000000000000000000000000000000000000000000000000000000000000000073ffffffffffffffffffffffffffffffffffffffff1663c3c90e64306040518263ffffffff1660e01b8152600401808273ffffffffffffffffffffffffffffffffffffffff16815260200191505060206040518083038186803b158015610b5e57600080fd5b505afa158015610b72573d6000803e3d6000fd5b505050506040513d6020811015610b8857600080fd5b81019080805190602001909291905050509050610bb5610ba6610a0b565b8261148a90919063ffffffff16565b90508091505090565b7f000000000000000000000000000000000000000000000000000000000000000081565b6000600260009054906101000a900460ff16905090565b610c016115b4565b600073ffffffffffffffffffffffffffffffffffffffff1660008054906101000a900473ffffffffffffffffffffffffffffffffffffffff1673ffffffffffffffffffffffffffffffffffffffff167f8be0079c531659141344cd1fd0a4f28419497f9722a3daafe3b4186f6b6457e060405160405180910390a360008060006101000a81548173ffffffffffffffffffffffffffffffffffffffff021916908373ffffffffffffffffffffffffffffffffffffffff160217905550565b6000807f000000000000000000000000000000000000000000000000000000000000000073ffffffffffffffffffffffffffffffffffffffff166308ee0c74306040518263ffffffff1660e01b8152600401808273ffffffffffffffffffffffffffffffffffffffff16815260200191505060206040518083038186803b158015610d4957600080fd5b505afa158015610d5d573d6000803e3d6000fd5b505050506040513d6020811015610d7357600080fd5b81019080805190602001909291905050509050610e5a817f000000000000000000000000000000000000000000000000000000000000000073ffffffffffffffffffffffffffffffffffffffff166370a08231306040518263ffffffff1660e01b8152600401808273ffffffffffffffffffffffffffffffffffffffff16815260200191505060206040518083038186803b158015610e1157600080fd5b505afa158015610e25573d6000803e3d6000fd5b505050506040513d6020811015610e3b57600080fd5b810190808051906020019092919050505061148a90919063ffffffff16565b91505090565b610e686115b4565b610e7061180d565b565b60008060009054906101000a900473ffffffffffffffffffffffffffffffffffffffff16905090565b73416947e6fc78f158fd9b775fa846b72d768879c281565b60008060045414610ef957610ef4600454610ee6670de0b6b3a7640000610ed8610cbf565b61137090919063ffffffff16565b6113f690919063ffffffff16565b610f03565b670de0b6b3a76400005b905090565b60026001541415610f81576040517f08c379a000000000000000000000000000000000000000000000000000000000815260040180806020018281038252601f8152602001807f5265656e7472616e637947756172643a207265656e7472616e742063616c6c0081525060200191505060405180910390fd5b6002600181905550610f91610be2565b15611004576040517f08c379a00000000000000000000000000000000000000000000000000000000081526004018080602001828103825260108152602001807f5061757361626c653a207061757365640000000000000000000000000000000081525060200191505060405180910390fd5b6000811161107a576040517f08c379a000000000000000000000000000000000000000000000000000000000815260040180806020018281038252600c8152602001807f7a65726f206465706f736974000000000000000000000000000000000000000081525060200191505060405180910390fd5b6000611084610cbf565b90506110d33330847f000000000000000000000000000000000000000000000000000000000000000073ffffffffffffffffffffffffffffffffffffffff166118f9909392919063ffffffff16565b6000806004541461110c57611105826110f76004548661137090919063ffffffff16565b6113f690919063ffffffff16565b9050611110565b8290505b80600360003373ffffffffffffffffffffffffffffffffffffffff1673ffffffffffffffffffffffffffffffffffffffff1681526020019081526020016000206000828254019250508190555080600460008282540192505081905550611175611769565b7f0b31d526fe816ae8eb124b963db91a1d08b24b909f76a80f07ce6dcd55c987c3338483600360003373ffffffffffffffffffffffffffffffffffffffff1673ffffffffffffffffffffffffffffffffffffffff16815260200190815260200160002054604051808573ffffffffffffffffffffffffffffffffffffffff16815260200184815260200183815260200182815260200194505050505060405180910390a150506001808190555050565b61122d6115b4565b600073ffffffffffffffffffffffffffffffffffffffff168173ffffffffffffffffffffffffffffffffffffffff1614156112b3576040517f08c379a0000000000000000000000000000000000000000000000000000000008152600401808060200182810382526026815260200180611ed86026913960400191505060405180910390fd5b8073ffffffffffffffffffffffffffffffffffffffff1660008054906101000a900473ffffffffffffffffffffffffffffffffffffffff1673ffffffffffffffffffffffffffffffffffffffff167f8be0079c531659141344cd1fd0a4f28419497f9722a3daafe3b4186f6b6457e060405160405180910390a3806000806101000a81548173ffffffffffffffffffffffffffffffffffffffff021916908373ffffffffffffffffffffffffffffffffffffffff16021790555050565b60008083141561138357600090506113f0565b600082840290508284828161139457fe5b04146113eb576040517f08c379a0000000000000000000000000000000000000000000000000000000008152600401808060200182810382526021815260200180611f246021913960400191505060405180910390fd5b809150505b92915050565b600061143883836040518060400160405280601a81526020017f536166654d6174683a206469766973696f6e206279207a65726f0000000000008152506119ba565b905092915050565b600061148283836040518060400160405280601e81526020017f536166654d6174683a207375627472616374696f6e206f766572666c6f770000815250611a80565b905092915050565b600080828401905083811015611508576040517f08c379a000000000000000000000000000000000000000000000000000000000815260040180806020018281038252601b8152602001807f536166654d6174683a206164646974696f6e206f766572666c6f77000000000081525060200191505060405180910390fd5b8091505092915050565b6115af8363a9059cbb60e01b8484604051602401808373ffffffffffffffffffffffffffffffffffffffff16815260200182815260200192505050604051602081830303815290604052907bffffffffffffffffffffffffffffffffffffffffffffffffffffffff19166020820180517bffffffffffffffffffffffffffffffffffffffffffffffffffffffff8381831617835250505050611b40565b505050565b6115bc611c2f565b73ffffffffffffffffffffffffffffffffffffffff1660008054906101000a900473ffffffffffffffffffffffffffffffffffffffff1673ffffffffffffffffffffffffffffffffffffffff161461167c576040517f08c379a00000000000000000000000000000000000000000000000000000000081526004018080602001828103825260208152602001807f4f776e61626c653a2063616c6c6572206973206e6f7420746865206f776e657281525060200191505060405180910390fd5b565b611686610be2565b6116f8576040517f08c379a00000000000000000000000000000000000000000000000000000000081526004018080602001828103825260148152602001807f5061757361626c653a206e6f742070617573656400000000000000000000000081525060200191505060405180910390fd5b6000600260006101000a81548160ff0219169083151502179055507f5db9ee0a495bf2e6ff9c91a7834c1ba4fdd244a5e8aa4e537bd38aeae4b073aa61173c611c2f565b604051808273ffffffffffffffffffffffffffffffffffffffff16815260200191505060405180910390a1565b6000611773610a0b565b9050600081111561180a577f000000000000000000000000000000000000000000000000000000000000000073ffffffffffffffffffffffffffffffffffffffff1663b6b55f25826040518263ffffffff1660e01b815260040180828152602001915050600060405180830381600087803b1580156117f157600080fd5b505af1158015611805573d6000803e3d6000fd5b505050505b50565b611815610be2565b15611888576040517f08c379a00000000000000000000000000000000000000000000000000000000081526004018080602001828103825260108152602001807f5061757361626c653a207061757365640000000000000000000000000000000081525060200191505060405180910390fd5b6001600260006101000a81548160ff0219169083151502179055507f62e78cea01bee320cd4e420270b5ea74000d11b0c9f74754ebdbfc544b05a2586118cc611c2f565b604051808273ffffffffffffffffffffffffffffffffffffffff16815260200191505060405180910390a1565b6119b4846323b872dd60e01b858585604051602401808473ffffffffffffffffffffffffffffffffffffffff1681526020018373ffffffffffffffffffffffffffffffffffffffff1681526020018281526020019350505050604051602081830303815290604052907bffffffffffffffffffffffffffffffffffffffffffffffffffffffff19166020820180517bffffffffffffffffffffffffffffffffffffffffffffffffffffffff8381831617835250505050611b40565b50505050565b60008083118290611a66576040517f08c379a00000000000000000000000000000000000000000000000000000000081526004018080602001828103825283818151815260200191508051906020019080838360005b83811015611a2b578082015181840152602081019050611a10565b50505050905090810190601f168015611a585780820380516001836020036101000a031916815260200191505b509250505060405180910390fd5b506000838581611a7257fe5b049050809150509392505050565b6000838311158290611b2d576040517f08c379a00000000000000000000000000000000000000000000000000000000081526004018080602001828103825283818151815260200191508051906020019080838360005b83811015611af2578082015181840152602081019050611ad7565b50505050905090810190601f168015611b1f5780820380516001836020036101000a031916815260200191505b509250505060405180910390fd5b5060008385039050809150509392505050565b6060611ba2826040518060400160405280602081526020017f5361666545524332303a206c6f772d6c6576656c2063616c6c206661696c65648152508573ffffffffffffffffffffffffffffffffffffffff16611c379092919063ffffffff16565b9050600081511115611c2a57808060200190516020811015611bc357600080fd5b8101908080519060200190929190505050611c29576040517f08c379a000000000000000000000000000000000000000000000000000000000815260040180806020018281038252602a815260200180611f45602a913960400191505060405180910390fd5b5b505050565b600033905090565b6060611c468484600085611c4f565b90509392505050565b606082471015611caa576040517f08c379a0000000000000000000000000000000000000000000000000000000008152600401808060200182810382526026815260200180611efe6026913960400191505060405180910390fd5b611cb385611df8565b611d25576040517f08c379a000000000000000000000000000000000000000000000000000000000815260040180806020018281038252601d8152602001807f416464726573733a2063616c6c20746f206e6f6e2d636f6e747261637400000081525060200191505060405180910390fd5b600060608673ffffffffffffffffffffffffffffffffffffffff1685876040518082805190602001908083835b60208310611d755780518252602082019150602081019050602083039250611d52565b6001836020036101000a03801982511681845116808217855250505050505090500191505060006040518083038185875af1925050503d8060008114611dd7576040519150601f19603f3d011682016040523d82523d6000602084013e611ddc565b606091505b5091509150611dec828286611e0b565b92505050949350505050565b600080823b905060008111915050919050565b60608315611e1b57829050611ed0565b600083511115611e2e5782518084602001fd5b816040517f08c379a00000000000000000000000000000000000000000000000000000000081526004018080602001828103825283818151815260200191508051906020019080838360005b83811015611e95578082015181840152602081019050611e7a565b50505050905090810190601f168015611ec25780820380516001836020036101000a031916815260200191505b509250505060405180910390fd5b939250505056fe4f776e61626c653a206e6577206f776e657220697320746865207a65726f2061646472657373416464726573733a20696e73756666696369656e742062616c616e636520666f722063616c6c536166654d6174683a206d756c7469706c69636174696f6e206f766572666c6f775361666545524332303a204552433230206f7065726174696f6e20646964206e6f742073756363656564a26469706673582212203eb7c094b5a101febb0cf110bc78d5ad822c077e9e5a1e6260ef376b497ecad564736f6c634300060c0033636f6e7374727563746f72efbc9a206173736574436f6e74726163745f206973207a65726f2061646472657373",
  "immutableReferences": {
    "53": [
      {
        "length": 32,
        "start": 1818
      },
      {
        "length": 32,
        "start": 2575
      },
      {
        "length": 32,
        "start": 3008
      },
      {
        "length": 32,
        "start": 3468
      },
      {
        "length": 32,
        "start": 4238
      }
    ],
    "67": [
      {
        "length": 32,
        "start": 1605
      },
      {
        "length": 32,
        "start": 2334
      },
      {
        "length": 32,
        "start": 2777
      },
      {
        "length": 32,
        "start": 3268
      },
      {
        "length": 32,
        "start": 6016
      }
    ]
  },
  "source": "// SPDX-License-Identifier: MIT\r\n\r\npragma solidity ^0.6.12;\r\n\r\nimport \"./library.sol\";\r\n\r\n\r\n\r\ninterface LPStaking {\r\n    function deposit(uint256 _amount) external;\r\n\r\n    function claimRewards() external;\r\n\r\n    function withdraw(uint256 amount) external;\r\n\r\n    function numStaked(address account) external view returns (uint256);\r\n\r\n    function totalStaked() external view returns (uint256);\r\n\r\n    function checkReward(address account) external view returns (uint256);\r\n}\r\n\r\n\r\n/**\r\n * @dev AutoCompound ogs \r\n */\r\ncontract AutoCompound is Ownable, ReentrancyGuard,Pausable {\r\n    using SafeERC20 for IERC20;\r\n    using SafeMath for uint;\r\n    \r\n    uint256 internal constant SHARE_MULTIPLIER = 1e18; // share multiplier to avert division underflow\r\n    \r\n    address public immutable assetContract; // the asset to invest -> ogs\r\n    address public constant ogsContract = 0x416947e6Fc78F158fd9B775fA846B72d768879c2;\r\n\r\n    \r\n    mapping(address => uint256) private clientShareNum; // tracking the number of shares own by investment agent clients \r\n    uint256 private totalClientShareNum = 0; // track the total shares given by investment agent \r\n    uint256 private lastHarvestedTime; // track the latest harvest timesteamp\r\n    \r\n    LPStaking private immutable lpstaking;\r\n    \r\n\r\n\r\n    \r\n    /**\r\n     * ======================================================================================\r\n     * \r\n     * SYSTEM FUNCTIONS\r\n     *\r\n     * ======================================================================================\r\n     */\r\n    constructor(address assetContract_,LPStaking _lpstaking) public {\r\n        require(assetContract_ != address(0), \"constructor assetContract_ is zero address\");\r\n        assetContract = assetContract_; //ogs\r\n        lpstaking=_lpstaking;\r\n    }\r\n        \r\n\r\n    /**\r\n     * @dev called by the owner to pause, triggers stopped state\r\n     **/\r\n    function pause() onlyOwner external { _pause(); }\r\n\r\n    /**\r\n    * @dev called by the owner to unpause, returns to normal state\r\n    */\r\n    function unpause() onlyOwner external { _unpause(); }\r\n\r\n\r\n\r\n    /**\r\n     * ======================================================================================\r\n     * \r\n     * AGENT MANAGE INVESTMENT(AUTO COMPOUND) FUNCTIONS\r\n     *\r\n     * ======================================================================================\r\n     */\r\n\r\n\r\n    /**\r\n     * @notice all \"agent\" refer to \"auto compound investment agent\" \r\n     */\r\n\r\n    /**\r\n     * @dev obtain agent's uncompound ogs balance\r\n     */\r\n    function available() public view returns (uint256) {\r\n        return IERC20(assetContract).balanceOf(address(this));\r\n    }\r\n\r\n    /**\r\n     * @dev obtain agent's staked and uncompound ogs balance\r\n     */    \r\n    function balanceOf() public view returns (uint256) {\r\n        uint256 amount = LPStaking(lpstaking).numStaked(address(this));\r\n        return IERC20(assetContract).balanceOf(address(this)).add(amount);\r\n    }\r\n\r\n\r\n    /**\r\n     * @dev agent deposits all his uncompound ogs into ogs lpstaking to earn staking rewards\r\n     */\r\n    function _earn() internal {\r\n        uint256 bal = available();\r\n        if (bal > 0) {\r\n            LPStaking(lpstaking).deposit(bal);\r\n        }\r\n    }\r\n\r\n\r\n    /** \r\n     * @notice need to be frenquently called by bot  \r\n     * @dev obtain agent's investment reward, compound agent's all balance \r\n     */\r\n    function harvest() external nonReentrant whenNotPaused {\r\n        LPStaking(lpstaking).claimRewards();\r\n\r\n        _earn();\r\n\r\n        lastHarvestedTime = block.timestamp;\r\n\r\n        emit Harvest(msg.sender,lastHarvestedTime);\r\n    }\r\n\r\n    \r\n    \r\n    /**\r\n     * ======================================================================================\r\n     * \r\n     * CLIENT JOIN INVESTMENT(AUTO COMPOUND) FUNCTIONS\r\n     *\r\n     * ======================================================================================\r\n     */\r\n     \r\n\r\n    /**\r\n     * @notice all \"agent\" refer to \"auto compound investment agent\" \r\n     */\r\n\r\n\r\n    /**\r\n     * @dev client send ogs to agent and join an auto compound investment\r\n     */\r\n    function clientDeposit(uint256 amount) external nonReentrant whenNotPaused {\r\n        require(amount > 0, \"zero deposit\");\r\n        // obtain agent pool oga balance\r\n        uint256 agentPool = balanceOf();\r\n\r\n        // transfer ogs from client to agent \r\n        IERC20(assetContract).safeTransferFrom(msg.sender, address(this), amount);\r\n\r\n        // convert client deposit into shares(client can withdraw share and convert share into ogs)\r\n        // inital current client shares number as 0\r\n        uint256 currentClientShareNum = 0;\r\n        // calculate the number of current client shares given by agent \r\n        if (totalClientShareNum != 0) {\r\n            currentClientShareNum = (amount.mul(totalClientShareNum)).div(agentPool);\r\n        } else {\r\n            currentClientShareNum = amount;\r\n        }\r\n        // update the number of current client shares \r\n        clientShareNum[msg.sender] += currentClientShareNum;\r\n        // update agent's total client share number\r\n        totalClientShareNum += currentClientShareNum;\r\n        \r\n        _earn();\r\n\r\n        emit ClientDeposit(msg.sender,amount,currentClientShareNum,clientShareNum[msg.sender]);\r\n\r\n    }\r\n    \r\n    \r\n    /**\r\n     * @notice input value is the number of shares client want to withdraw rather than ogs amount, different with deposit function \r\n     * @dev client withdraw shares from agent and agent return client shares worth ogs \r\n     */\r\n    function clientWithdraw(uint256 shares) public nonReentrant{\r\n        require(shares > 0, \"nothing to withdraw\");\r\n        require(shares <= clientShareNum[msg.sender], \"balance exceeded\");\r\n\r\n        // calculate client's withdraw share worth how much ogs\r\n        uint256 withdrawShareWorth = (balanceOf().mul(shares)).div(totalClientShareNum);\r\n\r\n        // update the number of current client shares\r\n        clientShareNum[msg.sender] -= shares;\r\n        // update agent's total client share number\r\n        totalClientShareNum -= shares;\r\n\r\n\r\n        // agent return client shares worth ogs\r\n        // agent's uncompound ogs balance\r\n        uint256 bal = available();\r\n        // if agent's uncompound ogs balance is enough to cover clent withdrawShareWorth ogs then withdraw ogs from agent's uncompound ogs\r\n        // else agent withdraw staking balance from lpstaking pool to fill up client withdraw vacancy\r\n        // agent's uncompound ogs balance can't cover withdrawShareWorth ogs scenario\r\n        if (bal < withdrawShareWorth) {\r\n            // client withdraw vacancy\r\n            uint256 balWithdraw = withdrawShareWorth.sub(bal);\r\n            // agent withdraw the vacancy from lpstaking pool\r\n            LPStaking(lpstaking).withdraw(balWithdraw);\r\n            // agent's uncompound ogs after withdraw from lpstaking pool\r\n            uint256 balAfter = available();\r\n            uint256 diff = balAfter.sub(bal);\r\n            // if withdraw still can't fill the vacancy, change client withdrawShareWorth\r\n            if (diff < balWithdraw) {\r\n                withdrawShareWorth  = bal.add(diff);\r\n            }\r\n        }\r\n        // transfer client withdraw share worth ogs \r\n        IERC20(assetContract).safeTransfer(msg.sender, withdrawShareWorth);\r\n\r\n        emit ClientWithdraw(msg.sender,withdrawShareWorth,shares,clientShareNum[msg.sender]);\r\n    }\r\n\r\n\r\n    /**\r\n     * @dev withdraw client's all shares from agent and agent return client shares worth ogs\r\n     */\r\n    function clientWithdrawAll() external nonReentrant{\r\n        clientWithdraw(clientShareNum[msg.sender]);\r\n        \r\n    }\r\n\r\n\r\n    \r\n    /**\r\n     * ======================================================================================\r\n     * \r\n     * VIEW FUNCTIONS\r\n     *\r\n     * ======================================================================================\r\n     */\r\n\r\n    /**\r\n     * @notice all \"agent\" refer to \"auto compound investment agent\" \r\n    */\r\n\r\n    /**\r\n     * @dev return agent's total pending rewards that can be compounded/restaked\r\n     */\r\n    function agentTotalPendingOgsRewards() external view returns (uint256) { \r\n        uint256 amount = LPStaking(lpstaking).checkReward(address(this));\r\n        //add agent's uncompound ogs balance\r\n        amount = amount.add(available());\r\n        \r\n        return amount;\r\n    }\r\n\r\n\r\n    /**\r\n     * @dev return the price(ogs) per share(given by agent) \r\n     */\r\n    function getOgsPerAgentShare() external view returns (uint256) {\r\n        // balanceOf() include agent's staked and uncompound ogs balance\r\n        return totalClientShareNum == 0 ? SHARE_MULTIPLIER : balanceOf().mul(SHARE_MULTIPLIER).div(totalClientShareNum);\r\n    }\r\n\r\n\r\n\r\n   \r\n    \r\n    /**\r\n     * ======================================================================================\r\n     * \r\n     * STAKING EVENTS\r\n     *\r\n     * ======================================================================================\r\n     */\r\n     event ClientDeposit(address account, uint256 depositOgs, uint256 depositShares, uint256 accountCurrentShares);\r\n     event ClientWithdraw(address account, uint256 withdrawOgs, uint256 withdrawShares, uint256 accountCurrentShares);\r\n     event Harvest(address account, uint256 timestamp);\r\n\r\n}",
  "sourcePath": "C:\\Users\\RangerHu\\Desktop\\Ouro Auto Compound\\master\\ouro-auto-compound\\contracts\\Auto_ogs.sol",
  "compiler": {
    "name": "solc",
    "version": "0.6.12+commit.27d51765.Emscripten.clang"
  },
  "schemaVersion": "3.4.4",
  "updatedAt": "2022-01-29T14:38:01.622Z",
  "devdoc": {
    "details": "AutoCompound ogs ",
    "kind": "dev",
    "methods": {
      "agentTotalPendingOgsRewards()": {
        "details": "return agent's total pending rewards that can be compounded/restaked"
      },
      "available()": {
        "details": "obtain agent's uncompound ogs balance"
      },
      "balanceOf()": {
        "details": "obtain agent's staked and uncompound ogs balance"
      },
      "clientDeposit(uint256)": {
        "details": "client send ogs to agent and join an auto compound investment"
      },
      "clientWithdraw(uint256)": {
        "details": "client withdraw shares from agent and agent return client shares worth ogs "
      },
      "clientWithdrawAll()": {
        "details": "withdraw client's all shares from agent and agent return client shares worth ogs"
      },
      "getOgsPerAgentShare()": {
        "details": "return the price(ogs) per share(given by agent) "
      },
      "harvest()": {
        "details": "obtain agent's investment reward, compound agent's all balance "
      },
      "owner()": {
        "details": "Returns the address of the current owner."
      },
      "pause()": {
        "details": "called by the owner to pause, triggers stopped state*"
      },
      "paused()": {
        "details": "Returns true if the contract is paused, and false otherwise."
      },
      "renounceOwnership()": {
        "details": "Leaves the contract without owner. It will not be possible to call `onlyOwner` functions anymore. Can only be called by the current owner. NOTE: Renouncing ownership will leave the contract without an owner, thereby removing any functionality that is only available to the owner."
      },
      "transferOwnership(address)": {
        "details": "Transfers ownership of the contract to a new account (`newOwner`). Can only be called by the current owner."
      },
      "unpause()": {
        "details": "called by the owner to unpause, returns to normal state"
      }
    },
    "version": 1
  },
  "userdoc": {
    "events": {
      "ClientDeposit(address,uint256,uint256,uint256)": {
        "notice": "======================================================================================  STAKING EVENTS ======================================================================================"
      }
    },
    "kind": "user",
    "methods": {
      "clientWithdraw(uint256)": {
        "notice": "input value is the number of shares client want to withdraw rather than ogs amount, different with deposit function "
      },
      "constructor": "======================================================================================  SYSTEM FUNCTIONS ======================================================================================",
      "harvest()": {
        "notice": "need to be frenquently called by bot  "
      }
    },
    "version": 1
  }
}