{
  "contractName": "LPStaking",
  "abi": [
    {
      "inputs": [
        {
          "internalType": "address",
          "name": "_ogsContract",
          "type": "address"
        }
      ],
      "stateMutability": "nonpayable",
      "type": "constructor"
    },
    {
      "anonymous": false,
      "inputs": [
        {
          "indexed": false,
          "internalType": "uint256",
          "name": "reward",
          "type": "uint256"
        }
      ],
      "name": "BlockRewardSet",
      "type": "event"
    },
    {
      "anonymous": false,
      "inputs": [
        {
          "indexed": false,
          "internalType": "address",
          "name": "account",
          "type": "address"
        },
        {
          "indexed": false,
          "internalType": "uint256",
          "name": "amount",
          "type": "uint256"
        }
      ],
      "name": "Deposit",
      "type": "event"
    },
    {
      "anonymous": false,
      "inputs": [
        {
          "indexed": true,
          "internalType": "address",
          "name": "previousOwner",
          "type": "address"
        },
        {
          "indexed": true,
          "internalType": "address",
          "name": "newOwner",
          "type": "address"
        }
      ],
      "name": "OwnershipTransferred",
      "type": "event"
    },
    {
      "anonymous": false,
      "inputs": [
        {
          "indexed": false,
          "internalType": "address",
          "name": "account",
          "type": "address"
        }
      ],
      "name": "Paused",
      "type": "event"
    },
    {
      "anonymous": false,
      "inputs": [
        {
          "indexed": false,
          "internalType": "address",
          "name": "account",
          "type": "address"
        }
      ],
      "name": "Unpaused",
      "type": "event"
    },
    {
      "anonymous": false,
      "inputs": [
        {
          "indexed": false,
          "internalType": "address",
          "name": "account",
          "type": "address"
        },
        {
          "indexed": false,
          "internalType": "uint256",
          "name": "amount",
          "type": "uint256"
        }
      ],
      "name": "Withdraw",
      "type": "event"
    },
    {
      "inputs": [],
      "name": "BlockReward",
      "outputs": [
        {
          "internalType": "uint256",
          "name": "",
          "type": "uint256"
        }
      ],
      "stateMutability": "view",
      "type": "function"
    },
    {
      "inputs": [],
      "name": "assetContract",
      "outputs": [
        {
          "internalType": "address",
          "name": "",
          "type": "address"
        }
      ],
      "stateMutability": "view",
      "type": "function"
    },
    {
      "inputs": [],
      "name": "ogsContract",
      "outputs": [
        {
          "internalType": "address",
          "name": "",
          "type": "address"
        }
      ],
      "stateMutability": "view",
      "type": "function"
    },
    {
      "inputs": [],
      "name": "owner",
      "outputs": [
        {
          "internalType": "address",
          "name": "",
          "type": "address"
        }
      ],
      "stateMutability": "view",
      "type": "function"
    },
    {
      "inputs": [],
      "name": "paused",
      "outputs": [
        {
          "internalType": "bool",
          "name": "",
          "type": "bool"
        }
      ],
      "stateMutability": "view",
      "type": "function"
    },
    {
      "inputs": [],
      "name": "renounceOwnership",
      "outputs": [],
      "stateMutability": "nonpayable",
      "type": "function"
    },
    {
      "inputs": [
        {
          "internalType": "address",
          "name": "newOwner",
          "type": "address"
        }
      ],
      "name": "transferOwnership",
      "outputs": [],
      "stateMutability": "nonpayable",
      "type": "function"
    },
    {
      "inputs": [
        {
          "internalType": "uint256",
          "name": "reward",
          "type": "uint256"
        }
      ],
      "name": "setBlockReward",
      "outputs": [],
      "stateMutability": "nonpayable",
      "type": "function"
    },
    {
      "inputs": [],
      "name": "pause",
      "outputs": [],
      "stateMutability": "nonpayable",
      "type": "function"
    },
    {
      "inputs": [],
      "name": "unpause",
      "outputs": [],
      "stateMutability": "nonpayable",
      "type": "function"
    },
    {
      "inputs": [
        {
          "internalType": "uint256",
          "name": "amount",
          "type": "uint256"
        }
      ],
      "name": "deposit",
      "outputs": [],
      "stateMutability": "nonpayable",
      "type": "function"
    },
    {
      "inputs": [
        {
          "internalType": "uint256",
          "name": "amount",
          "type": "uint256"
        }
      ],
      "name": "withdraw",
      "outputs": [],
      "stateMutability": "nonpayable",
      "type": "function"
    },
    {
      "inputs": [
        {
          "internalType": "address",
          "name": "account",
          "type": "address"
        }
      ],
      "name": "numStaked",
      "outputs": [
        {
          "internalType": "uint256",
          "name": "",
          "type": "uint256"
        }
      ],
      "stateMutability": "view",
      "type": "function"
    },
    {
      "inputs": [],
      "name": "totalStaked",
      "outputs": [
        {
          "internalType": "uint256",
          "name": "",
          "type": "uint256"
        }
      ],
      "stateMutability": "view",
      "type": "function"
    },
    {
      "inputs": [
        {
          "internalType": "address",
          "name": "account",
          "type": "address"
        }
      ],
      "name": "checkUncompoundReward",
      "outputs": [
        {
          "internalType": "uint256",
          "name": "rewards",
          "type": "uint256"
        }
      ],
      "stateMutability": "view",
      "type": "function"
    }
  ],
  "bytecode": "0x6080604052600060055560006009556001600c5543600d5534801561002357600080fd5b5060405162002080380380620020808339818101604052602081101561004857600080fd5b8101908080519060200190929190505050600061006961023860201b60201c565b9050806000806101000a81548173ffffffffffffffffffffffffffffffffffffffff021916908373ffffffffffffffffffffffffffffffffffffffff1602179055508073ffffffffffffffffffffffffffffffffffffffff16600073ffffffffffffffffffffffffffffffffffffffff167f8be0079c531659141344cd1fd0a4f28419497f9722a3daafe3b4186f6b6457e060405160405180910390a350600180819055506000600260006101000a81548160ff021916908315150217905550600073ffffffffffffffffffffffffffffffffffffffff168173ffffffffffffffffffffffffffffffffffffffff1614156101b0576040517f08c379a000000000000000000000000000000000000000000000000000000000815260040180806020018281038252602d81526020018062002053602d913960400191505060405180910390fd5b80600360006101000a81548173ffffffffffffffffffffffffffffffffffffffff021916908373ffffffffffffffffffffffffffffffffffffffff16021790555080600260016101000a81548173ffffffffffffffffffffffffffffffffffffffff021916908373ffffffffffffffffffffffffffffffffffffffff16021790555050610240565b600033905090565b611e0380620002506000396000f3fe608060405234801561001057600080fd5b50600436106100f55760003560e01c8063715018a61161009757806398cf61011161006657806398cf6101146102ca5780639f448dfd146102e8578063b6b55f251461031c578063f2fde38b1461034a576100f5565b8063715018a614610264578063817b1cd21461026e5780638456cb591461028c5780638da5cb5b14610296576100f5565b80633e8f0b59116100d35780633e8f0b59146101ae5780633f4ba83a146102065780634d16304f146102105780635c975abb14610244576100f5565b806308ee0c74146100fa5780631a18e707146101525780632e1a7d4d14610180575b600080fd5b61013c6004803603602081101561011057600080fd5b81019080803573ffffffffffffffffffffffffffffffffffffffff16906020019092919050505061038e565b6040518082815260200191505060405180910390f35b61017e6004803603602081101561016857600080fd5b81019080803590602001909291905050506103d7565b005b6101ac6004803603602081101561019657600080fd5b8101908080359060200190929190505050610428565b005b6101f0600480360360208110156101c457600080fd5b81019080803573ffffffffffffffffffffffffffffffffffffffff16906020019092919050505061066f565b6040518082815260200191505060405180910390f35b61020e610827565b005b610218610839565b604051808273ffffffffffffffffffffffffffffffffffffffff16815260200191505060405180910390f35b61024c61085f565b60405180821515815260200191505060405180910390f35b61026c610876565b005b61027661093c565b6040518082815260200191505060405180910390f35b610294610946565b005b61029e610958565b604051808273ffffffffffffffffffffffffffffffffffffffff16815260200191505060405180910390f35b6102d2610981565b6040518082815260200191505060405180910390f35b6102f0610987565b604051808273ffffffffffffffffffffffffffffffffffffffff16815260200191505060405180910390f35b6103486004803603602081101561033257600080fd5b81019080803590602001909291905050506109ad565b005b61038c6004803603602081101561036057600080fd5b81019080803573ffffffffffffffffffffffffffffffffffffffff169060200190929190505050610c97565b005b6000600460008373ffffffffffffffffffffffffffffffffffffffff1673ffffffffffffffffffffffffffffffffffffffff168152602001908152602001600020549050919050565b6103df610de2565b6103e7610eac565b806009819055507fb54abaa50fadd2086c578558d4ecb1890a97696c927a0e7dbd9417704d8a2c55816040518082815260200191505060405180910390a150565b600260015414156104a1576040517f08c379a000000000000000000000000000000000000000000000000000000000815260040180806020018281038252601f8152602001807f5265656e7472616e637947756172643a207265656e7472616e742063616c6c0081525060200191505060405180910390fd5b6002600181905550600460003373ffffffffffffffffffffffffffffffffffffffff1673ffffffffffffffffffffffffffffffffffffffff1681526020019081526020016000205481111561055e576040517f08c379a00000000000000000000000000000000000000000000000000000000081526004018080602001828103825260108152602001807f62616c616e63652065786365656465640000000000000000000000000000000081525060200191505060405180910390fd5b610566610f93565b80600460003373ffffffffffffffffffffffffffffffffffffffff1673ffffffffffffffffffffffffffffffffffffffff16815260200190815260200160002060008282540392505081905550806008600082825403925050819055506106103382600260019054906101000a900473ffffffffffffffffffffffffffffffffffffffff1673ffffffffffffffffffffffffffffffffffffffff1661133d9092919063ffffffff16565b7f884edad9ce6fa2440d8a54cc123490eb96d2768479d49ff9c7366125a94243643382604051808373ffffffffffffffffffffffffffffffffffffffff1681526020018281526020019250505060405180910390a16001808190555050565b600080600460008473ffffffffffffffffffffffffffffffffffffffff1673ffffffffffffffffffffffffffffffffffffffff1681526020019081526020016000205490506000600b60008573ffffffffffffffffffffffffffffffffffffffff1673ffffffffffffffffffffffffffffffffffffffff1681526020019081526020016000205490506000610738600a600084815260200190815260200160002054600a60006001600c54038152602001908152602001600020546113df90919063ffffffff16565b905060008060085411156107ac57600061075d600d54436113df90919063ffffffff16565b905060006107768260095461142990919063ffffffff16565b90506107a7600854610799670de0b6b3a76400008461142990919063ffffffff16565b6114af90919063ffffffff16565b925050505b6107db670de0b6b3a76400006107cd8684860161142990919063ffffffff16565b6114af90919063ffffffff16565b600760008873ffffffffffffffffffffffffffffffffffffffff1673ffffffffffffffffffffffffffffffffffffffff1681526020019081526020016000205401945050505050919050565b61082f610de2565b6108376114f9565b565b600260019054906101000a900473ffffffffffffffffffffffffffffffffffffffff1681565b6000600260009054906101000a900460ff16905090565b61087e610de2565b600073ffffffffffffffffffffffffffffffffffffffff1660008054906101000a900473ffffffffffffffffffffffffffffffffffffffff1673ffffffffffffffffffffffffffffffffffffffff167f8be0079c531659141344cd1fd0a4f28419497f9722a3daafe3b4186f6b6457e060405160405180910390a360008060006101000a81548173ffffffffffffffffffffffffffffffffffffffff021916908373ffffffffffffffffffffffffffffffffffffffff160217905550565b6000600854905090565b61094e610de2565b6109566115e4565b565b60008060009054906101000a900473ffffffffffffffffffffffffffffffffffffffff16905090565b60095481565b600360009054906101000a900473ffffffffffffffffffffffffffffffffffffffff1681565b60026001541415610a26576040517f08c379a000000000000000000000000000000000000000000000000000000000815260040180806020018281038252601f8152602001807f5265656e7472616e637947756172643a207265656e7472616e742063616c6c0081525060200191505060405180910390fd5b6002600181905550610a3661085f565b15610aa9576040517f08c379a00000000000000000000000000000000000000000000000000000000081526004018080602001828103825260108152602001807f5061757361626c653a207061757365640000000000000000000000000000000081525060200191505060405180910390fd5b60008111610b1f576040517f08c379a000000000000000000000000000000000000000000000000000000000815260040180806020018281038252600c8152602001807f7a65726f206465706f736974000000000000000000000000000000000000000081525060200191505060405180910390fd5b610b27610f93565b80600460003373ffffffffffffffffffffffffffffffffffffffff1673ffffffffffffffffffffffffffffffffffffffff16815260200190815260200160002060008282540192505081905550806008600082825401925050819055503360066000600554815260200190815260200160002060006101000a81548173ffffffffffffffffffffffffffffffffffffffff021916908373ffffffffffffffffffffffffffffffffffffffff1602179055506001600560008282540192505081905550610c38333083600260019054906101000a900473ffffffffffffffffffffffffffffffffffffffff1673ffffffffffffffffffffffffffffffffffffffff166116d0909392919063ffffffff16565b7fe1fffcc4923d04b559f4d29a8bfc6cda04eb5b0d3c460751c2402c5c5cc9109c3382604051808373ffffffffffffffffffffffffffffffffffffffff1681526020018281526020019250505060405180910390a16001808190555050565b610c9f610de2565b600073ffffffffffffffffffffffffffffffffffffffff168173ffffffffffffffffffffffffffffffffffffffff161415610d25576040517f08c379a0000000000000000000000000000000000000000000000000000000008152600401808060200182810382526026815260200180611d376026913960400191505060405180910390fd5b8073ffffffffffffffffffffffffffffffffffffffff1660008054906101000a900473ffffffffffffffffffffffffffffffffffffffff1673ffffffffffffffffffffffffffffffffffffffff167f8be0079c531659141344cd1fd0a4f28419497f9722a3daafe3b4186f6b6457e060405160405180910390a3806000806101000a81548173ffffffffffffffffffffffffffffffffffffffff021916908373ffffffffffffffffffffffffffffffffffffffff16021790555050565b610dea611791565b73ffffffffffffffffffffffffffffffffffffffff1660008054906101000a900473ffffffffffffffffffffffffffffffffffffffff1673ffffffffffffffffffffffffffffffffffffffff1614610eaa576040517f08c379a00000000000000000000000000000000000000000000000000000000081526004018080602001828103825260208152602001807f4f776e61626c653a2063616c6c6572206973206e6f7420746865206f776e657281525060200191505060405180910390fd5b565b43600d541415610ebb57610f91565b60006008541415610ecb57610f91565b6000610ee2600d54436113df90919063ffffffff16565b90506000610efb8260095461142990919063ffffffff16565b90506000610f2e600854610f20670de0b6b3a76400008561142990919063ffffffff16565b6114af90919063ffffffff16565b905043600d81905550610f62600a60006001600c54038152602001908152602001600020548261179990919063ffffffff16565b600a6000600c54815260200190815260200160002081905550600c600081548092919060010191905055505050505b565b610f9b610eac565b60008060006001600c5403905060008060055411156113375760005b6005548110156113355760006006600083815260200190815260200160002060009054906101000a900473ffffffffffffffffffffffffffffffffffffffff169050600460008273ffffffffffffffffffffffffffffffffffffffff1673ffffffffffffffffffffffffffffffffffffffff168152602001908152602001600020549550600b60008273ffffffffffffffffffffffffffffffffffffffff1673ffffffffffffffffffffffffffffffffffffffff1681526020019081526020016000205494506110e2670de0b6b3a76400006110d4886110c6600a60008b815260200190815260200160002054600a60008b8152602001908152602001600020546113df90919063ffffffff16565b61142990919063ffffffff16565b6114af90919063ffffffff16565b925082600760008373ffffffffffffffffffffffffffffffffffffffff1673ffffffffffffffffffffffffffffffffffffffff1681526020019081526020016000206000828254019250508190555083600b60008373ffffffffffffffffffffffffffffffffffffffff1673ffffffffffffffffffffffffffffffffffffffff16815260200190815260200160002081905550600760008273ffffffffffffffffffffffffffffffffffffffff1673ffffffffffffffffffffffffffffffffffffffff16815260200190815260200160002054600460008373ffffffffffffffffffffffffffffffffffffffff1673ffffffffffffffffffffffffffffffffffffffff16815260200190815260200160002060008282540192505081905550600760008273ffffffffffffffffffffffffffffffffffffffff1673ffffffffffffffffffffffffffffffffffffffff168152602001908152602001600020546008600082825401925050819055507fe1fffcc4923d04b559f4d29a8bfc6cda04eb5b0d3c460751c2402c5c5cc9109c81600760008473ffffffffffffffffffffffffffffffffffffffff1673ffffffffffffffffffffffffffffffffffffffff16815260200190815260200160002054604051808373ffffffffffffffffffffffffffffffffffffffff1681526020018281526020019250505060405180910390a1600760008273ffffffffffffffffffffffffffffffffffffffff1673ffffffffffffffffffffffffffffffffffffffff16815260200190815260200160002060009055508080600101915050610fb7565b505b50505050565b6113da8363a9059cbb60e01b8484604051602401808373ffffffffffffffffffffffffffffffffffffffff16815260200182815260200192505050604051602081830303815290604052907bffffffffffffffffffffffffffffffffffffffffffffffffffffffff19166020820180517bffffffffffffffffffffffffffffffffffffffffffffffffffffffff8381831617835250505050611821565b505050565b600061142183836040518060400160405280601e81526020017f536166654d6174683a207375627472616374696f6e206f766572666c6f770000815250611910565b905092915050565b60008083141561143c57600090506114a9565b600082840290508284828161144d57fe5b04146114a4576040517f08c379a0000000000000000000000000000000000000000000000000000000008152600401808060200182810382526021815260200180611d836021913960400191505060405180910390fd5b809150505b92915050565b60006114f183836040518060400160405280601a81526020017f536166654d6174683a206469766973696f6e206279207a65726f0000000000008152506119d0565b905092915050565b61150161085f565b611573576040517f08c379a00000000000000000000000000000000000000000000000000000000081526004018080602001828103825260148152602001807f5061757361626c653a206e6f742070617573656400000000000000000000000081525060200191505060405180910390fd5b6000600260006101000a81548160ff0219169083151502179055507f5db9ee0a495bf2e6ff9c91a7834c1ba4fdd244a5e8aa4e537bd38aeae4b073aa6115b7611791565b604051808273ffffffffffffffffffffffffffffffffffffffff16815260200191505060405180910390a1565b6115ec61085f565b1561165f576040517f08c379a00000000000000000000000000000000000000000000000000000000081526004018080602001828103825260108152602001807f5061757361626c653a207061757365640000000000000000000000000000000081525060200191505060405180910390fd5b6001600260006101000a81548160ff0219169083151502179055507f62e78cea01bee320cd4e420270b5ea74000d11b0c9f74754ebdbfc544b05a2586116a3611791565b604051808273ffffffffffffffffffffffffffffffffffffffff16815260200191505060405180910390a1565b61178b846323b872dd60e01b858585604051602401808473ffffffffffffffffffffffffffffffffffffffff1681526020018373ffffffffffffffffffffffffffffffffffffffff1681526020018281526020019350505050604051602081830303815290604052907bffffffffffffffffffffffffffffffffffffffffffffffffffffffff19166020820180517bffffffffffffffffffffffffffffffffffffffffffffffffffffffff8381831617835250505050611821565b50505050565b600033905090565b600080828401905083811015611817576040517f08c379a000000000000000000000000000000000000000000000000000000000815260040180806020018281038252601b8152602001807f536166654d6174683a206164646974696f6e206f766572666c6f77000000000081525060200191505060405180910390fd5b8091505092915050565b6060611883826040518060400160405280602081526020017f5361666545524332303a206c6f772d6c6576656c2063616c6c206661696c65648152508573ffffffffffffffffffffffffffffffffffffffff16611a969092919063ffffffff16565b905060008151111561190b578080602001905160208110156118a457600080fd5b810190808051906020019092919050505061190a576040517f08c379a000000000000000000000000000000000000000000000000000000000815260040180806020018281038252602a815260200180611da4602a913960400191505060405180910390fd5b5b505050565b60008383111582906119bd576040517f08c379a00000000000000000000000000000000000000000000000000000000081526004018080602001828103825283818151815260200191508051906020019080838360005b83811015611982578082015181840152602081019050611967565b50505050905090810190601f1680156119af5780820380516001836020036101000a031916815260200191505b509250505060405180910390fd5b5060008385039050809150509392505050565b60008083118290611a7c576040517f08c379a00000000000000000000000000000000000000000000000000000000081526004018080602001828103825283818151815260200191508051906020019080838360005b83811015611a41578082015181840152602081019050611a26565b50505050905090810190601f168015611a6e5780820380516001836020036101000a031916815260200191505b509250505060405180910390fd5b506000838581611a8857fe5b049050809150509392505050565b6060611aa58484600085611aae565b90509392505050565b606082471015611b09576040517f08c379a0000000000000000000000000000000000000000000000000000000008152600401808060200182810382526026815260200180611d5d6026913960400191505060405180910390fd5b611b1285611c57565b611b84576040517f08c379a000000000000000000000000000000000000000000000000000000000815260040180806020018281038252601d8152602001807f416464726573733a2063616c6c20746f206e6f6e2d636f6e747261637400000081525060200191505060405180910390fd5b600060608673ffffffffffffffffffffffffffffffffffffffff1685876040518082805190602001908083835b60208310611bd45780518252602082019150602081019050602083039250611bb1565b6001836020036101000a03801982511681845116808217855250505050505090500191505060006040518083038185875af1925050503d8060008114611c36576040519150601f19603f3d011682016040523d82523d6000602084013e611c3b565b606091505b5091509150611c4b828286611c6a565b92505050949350505050565b600080823b905060008111915050919050565b60608315611c7a57829050611d2f565b600083511115611c8d5782518084602001fd5b816040517f08c379a00000000000000000000000000000000000000000000000000000000081526004018080602001828103825283818151815260200191508051906020019080838360005b83811015611cf4578082015181840152602081019050611cd9565b50505050905090810190601f168015611d215780820380516001836020036101000a031916815260200191505b509250505060405180910390fd5b939250505056fe4f776e61626c653a206e6577206f776e657220697320746865207a65726f2061646472657373416464726573733a20696e73756666696369656e742062616c616e636520666f722063616c6c536166654d6174683a206d756c7469706c69636174696f6e206f766572666c6f775361666545524332303a204552433230206f7065726174696f6e20646964206e6f742073756363656564a2646970667358221220a27aa23964aa5f6267cfafddb85914f2ccbe51e945ace72a3896bc06412e47ac64736f6c634300060c0033636f6e7374727563746f72efbc9a206173736574436f6e74726163745f206973207a65726f2061646472657373",
  "immutableReferences": {},
  "source": "\r\n// SPDX-License-Identifier: MIT\r\n\r\npragma solidity ^0.6.12;\r\n\r\nimport \"./library.sol\";\r\n\r\n/**\r\n * @dev LP staking related to OURO/xxx pair\r\n */\r\ncontract LPStaking is Ownable, ReentrancyGuard,Pausable {\r\n    using SafeERC20 for IERC20;\r\n    using SafeMath for uint;\r\n    \r\n    uint256 internal constant SHARE_MULTIPLIER = 1e18; // share multiplier to avert division underflow\r\n    \r\n    //====\r\n    ///assetContract ogs \r\n    ///auto compound tgogsogs\r\n    // address public constant assetContract = 0x416947e6Fc78F158fd9B775fA846B72d768879c2; // the asset to stake\r\n    //====\r\n\r\n    address public assetContract;\r\n    address public ogsContract;\r\n    // address public constant ogsContract = 0x416947e6Fc78F158fd9B775fA846B72d768879c2;\r\n\r\n    mapping (address => uint256) private _balances; // tracking staker's value\r\n   \r\n    //====\r\n    uint256 private _numStaker = 0 ; // track the number of total staker\r\n    mapping (uint256 => address) private _stakersAddress; // tracking stakers' address  \r\n    //====\r\n\r\n    mapping (address => uint256) internal _rewardBalance; // tracking staker's claimable reward tokens\r\n    uint256 private _totalStaked; // track total staked value\r\n    \r\n    /// @dev initial block reward\r\n    uint256 public BlockReward = 0;\r\n    \r\n    /// @dev round index mapping to accumulate share.\r\n    mapping (uint => uint) private _accShares;\r\n    /// @dev mark staker's highest settled round.\r\n    mapping (address => uint) private _settledRounds;\r\n    /// @dev a monotonic increasing round index, STARTS FROM 1\r\n    uint256 private _currentRound = 1;\r\n    // @dev last rewarded block\r\n    uint256 private _lastRewardBlock = block.number;\r\n    \r\n    /**\r\n     * ======================================================================================\r\n     * \r\n     * SYSTEM FUNCTIONS\r\n     *\r\n     * ======================================================================================\r\n     */\r\n    //====\r\n    ///assetContractogs,\r\n    constructor(address _ogsContract) public {\r\n        require(_ogsContract != address(0), \"constructor assetContract_ is zero address\");\r\n        ogsContract = _ogsContract;\r\n        assetContract = _ogsContract; \r\n    }\r\n    //====\r\n        \r\n    /**\r\n     * @dev set block reward\r\n     */\r\n    function setBlockReward(uint256 reward) external onlyOwner {\r\n        // settle previous rewards\r\n        updateReward();\r\n        // set new block reward\r\n        BlockReward = reward;\r\n            \r\n        // log\r\n        emit BlockRewardSet(reward);\r\n    }\r\n\r\n    /**\r\n     * @dev called by the owner to pause, triggers stopped state\r\n     **/\r\n    function pause() onlyOwner external { _pause(); }\r\n\r\n    /**\r\n    * @dev called by the owner to unpause, returns to normal state\r\n    */\r\n    function unpause() onlyOwner external { _unpause(); }\r\n    \r\n    /**\r\n     * ======================================================================================\r\n     * \r\n     * STAKING FUNCTIONS\r\n     *\r\n     * ======================================================================================\r\n     */\r\n     \r\n    /**\r\n     * @dev stake assets\r\n     */\r\n    //compound\r\n    function deposit(uint256 amount) external nonReentrant whenNotPaused {\r\n        require(amount > 0, \"zero deposit\");\r\n        // settle and compound all rewards\r\n        settleStaker();\r\n        \r\n        // modifiy\r\n        _balances[msg.sender] += amount;\r\n        _totalStaked += amount;\r\n\r\n        //====\r\n        _stakersAddress[_numStaker] = msg.sender; //the index 0 mapping to the first staker address\r\n        _numStaker += 1; //add a staker\r\n        \r\n        //====\r\n        // transfer asset from AssetContract\r\n        IERC20(assetContract).safeTransferFrom(msg.sender, address(this), amount);\r\n        // log\r\n        emit Deposit(msg.sender, amount);\r\n    }\r\n    \r\n    //====\r\n    //compoundclaimRewardsreward0_rewardBalance[msg.sender]=0\r\n    // withdraw_balances[msg.sender]\r\n    // /**\r\n    //  * @dev claim rewards\r\n    //  */\r\n    // //compound\r\n    // function claimRewards() external nonReentrant whenNotPaused {\r\n    //     // settle and compound all rewards\r\n    //     settleStaker();\r\n        \r\n    //     // reward balance modification\r\n    //     uint amountReward = _rewardBalance[msg.sender];\r\n    //     delete _rewardBalance[msg.sender]; // zero reward balance\r\n\r\n    //     // mint reward to sender\r\n    //     IOGSToken(ogsContract).mint(msg.sender, amountReward);\r\n        \r\n    //     // log\r\n    //     emit OGSClaimed(msg.sender, amountReward);\r\n    // }\r\n    //====\r\n    \r\n    /**\r\n     * @dev withdraw the staked assets\r\n     */\r\n    //compound\r\n    function withdraw(uint256 amount) external nonReentrant {\r\n        require(amount <= _balances[msg.sender], \"balance exceeded\");\r\n\r\n        // settle and compound all rewards\r\n        settleStaker();\r\n\r\n        // modifiy\r\n        _balances[msg.sender] -= amount;\r\n        _totalStaked -= amount;\r\n        \r\n        // transfer assets back\r\n        IERC20(assetContract).safeTransfer(msg.sender, amount);\r\n        \r\n        // log\r\n        emit Withdraw(msg.sender, amount);\r\n    }\r\n\r\n    /**\r\n     * @dev settle a staker\r\n     */\r\n    //====\r\n    //compound\r\n    //***auto ogswithdrawdepositclaimRewardscompound(:compoundauto ogs,auto ogs,compound,manual)***\r\n    //,,,\r\n    function settleStaker() internal {\r\n        // update reward snapshot\r\n        updateReward();\r\n        \r\n        // settle this account\r\n        uint accountCollateral;\r\n        uint lastSettledRound;\r\n        uint newSettledRound = _currentRound - 1;\r\n        \r\n        // round rewards\r\n        uint roundReward;  \r\n        \r\n        ///======\r\n        // reinvest all accounts'reward\r\n        //balancesogs,rewardogs,\r\n        if (_numStaker > 0){     //auto ogs\r\n            // auto compound \r\n            for (uint256 _i=0; _i<_numStaker; _i++ ){\r\n                   \r\n                address currentStaker = _stakersAddress[_i]; //Staker\r\n\r\n                // settle this account\r\n                accountCollateral = _balances[currentStaker];\r\n                lastSettledRound = _settledRounds[currentStaker];\r\n\r\n                // round rewards\r\n                roundReward = _accShares[newSettledRound].sub(_accShares[lastSettledRound])\r\n                                .mul(accountCollateral)\r\n                                .div(SHARE_MULTIPLIER);  // remember to div by SHARE_MULTIPLIER\r\n\r\n                // update reward balance\r\n                _rewardBalance[currentStaker] += roundReward;\r\n                \r\n                // mark new settled reward round\r\n                _settledRounds[currentStaker] = newSettledRound;\r\n\r\n                //reinvest current account's reward\r\n                _balances[currentStaker] += _rewardBalance[currentStaker];\r\n                _totalStaked += _rewardBalance[currentStaker];\r\n                // log current account reinvest\r\n                emit Deposit(currentStaker, _rewardBalance[currentStaker]);\r\n                // zero reward balance, save gas\r\n                delete _rewardBalance[currentStaker];  //,:  _rewardBalance[currentStaker]=0  \r\n\r\n            }\r\n        }\r\n\r\n        ///======\r\n    }\r\n    //====\r\n     \r\n    /**\r\n     * @dev update accumulated block reward until current block\r\n     */\r\n    function updateReward() internal {\r\n        // skip round changing in the same block\r\n        if (_lastRewardBlock == block.number) {\r\n            return;\r\n        }\r\n    \r\n        // postpone rewarding if there is none staker\r\n        if (_totalStaked == 0) {\r\n            return;\r\n        }\r\n\r\n        // settle reward share for [_lastRewardBlock, block.number]\r\n        uint blocksToReward = block.number.sub(_lastRewardBlock);\r\n        uint mintedReward = BlockReward.mul(blocksToReward);\r\n\r\n        // reward share\r\n        uint roundShare = mintedReward.mul(SHARE_MULTIPLIER)\r\n                                        .div(_totalStaked);\r\n                                \r\n        // mark block rewarded;\r\n        _lastRewardBlock = block.number;\r\n            \r\n        // accumulate reward share\r\n        _accShares[_currentRound] = roundShare.add(_accShares[_currentRound-1]); \r\n       \r\n        // next round setting                                 \r\n        _currentRound++;\r\n        \r\n    }\r\n    \r\n    /**\r\n     * ======================================================================================\r\n     * \r\n     * VIEW FUNCTIONS\r\n     *\r\n     * ======================================================================================\r\n     */\r\n        \r\n    /**\r\n     * @dev return value staked for an account\r\n     */\r\n    function numStaked(address account) external view returns (uint256) { return _balances[account]; }\r\n\r\n    /**\r\n     * @dev return total staked value\r\n     */\r\n    function totalStaked() external view returns (uint256) { return _totalStaked; }\r\n     \r\n    /**\r\n     * @notice sum unclaimed reward;\r\n     */\r\n    function checkUncompoundReward(address account) external view returns(uint256 rewards) {\r\n        uint accountCollateral = _balances[account];\r\n        uint lastSettledRound = _settledRounds[account];\r\n        \r\n        // reward = settled rewards + unsettled rewards + newMined rewards\r\n        uint unsettledShare = _accShares[_currentRound-1].sub(_accShares[lastSettledRound]);\r\n        \r\n        uint newMinedShare;\r\n        if (_totalStaked > 0) {\r\n            uint blocksToReward = block.number.sub(_lastRewardBlock);\r\n            uint mintedReward = BlockReward.mul(blocksToReward);\r\n    \r\n            // reward share\r\n            newMinedShare = mintedReward.mul(SHARE_MULTIPLIER)\r\n                                        .div(_totalStaked);\r\n        }\r\n        \r\n        return _rewardBalance[account] + (unsettledShare + newMinedShare).mul(accountCollateral)\r\n                                            .div(SHARE_MULTIPLIER);  // remember to div by SHARE_MULTIPLIER;\r\n    }\r\n    \r\n    /**\r\n     * ======================================================================================\r\n     * \r\n     * STAKING EVENTS\r\n     *\r\n     * ======================================================================================\r\n     */\r\n     event Deposit(address account, uint256 amount);\r\n     event Withdraw(address account, uint256 amount);\r\n    //  event OGSClaimed(address account, uint256 amount);\r\n     event BlockRewardSet(uint256 reward);\r\n}",
  "sourcePath": "C:\\Users\\RangerHu\\Desktop\\Ouro Auto Compound\\master\\ouro-auto-compound\\contracts\\Ouro_Auto_ogs.sol",
  "compiler": {
    "name": "solc",
    "version": "0.6.12+commit.27d51765.Emscripten.clang"
  },
  "schemaVersion": "3.4.4",
  "updatedAt": "2022-01-27T08:08:57.311Z",
  "devdoc": {
    "details": "LP staking related to OURO/xxx pair",
    "kind": "dev",
    "methods": {
      "deposit(uint256)": {
        "details": "stake assets"
      },
      "numStaked(address)": {
        "details": "return value staked for an account"
      },
      "owner()": {
        "details": "Returns the address of the current owner."
      },
      "pause()": {
        "details": "called by the owner to pause, triggers stopped state*"
      },
      "paused()": {
        "details": "Returns true if the contract is paused, and false otherwise."
      },
      "renounceOwnership()": {
        "details": "Leaves the contract without owner. It will not be possible to call `onlyOwner` functions anymore. Can only be called by the current owner. NOTE: Renouncing ownership will leave the contract without an owner, thereby removing any functionality that is only available to the owner."
      },
      "setBlockReward(uint256)": {
        "details": "set block reward"
      },
      "totalStaked()": {
        "details": "return total staked value"
      },
      "transferOwnership(address)": {
        "details": "Transfers ownership of the contract to a new account (`newOwner`). Can only be called by the current owner."
      },
      "unpause()": {
        "details": "called by the owner to unpause, returns to normal state"
      },
      "withdraw(uint256)": {
        "details": "withdraw the staked assets"
      }
    },
    "stateVariables": {
      "BlockReward": {
        "details": "initial block reward"
      },
      "_accShares": {
        "details": "round index mapping to accumulate share."
      },
      "_currentRound": {
        "details": "a monotonic increasing round index, STARTS FROM 1"
      },
      "_settledRounds": {
        "details": "mark staker's highest settled round."
      }
    },
    "version": 1
  },
  "userdoc": {
    "events": {
      "Deposit(address,uint256)": {
        "notice": "======================================================================================  STAKING EVENTS ======================================================================================"
      }
    },
    "kind": "user",
    "methods": {
      "assetContract()": {
        "notice": "assetContract ogs  auto compound tgogsogs"
      },
      "checkUncompoundReward(address)": {
        "notice": "sum unclaimed reward;"
      },
      "constructor": "assetContractogs,"
    },
    "version": 1
  }
}