{
  "contractName": "LPStaking",
  "abi": [
    {
      "inputs": [
        {
          "internalType": "address",
          "name": "assetContract_",
          "type": "address"
        }
      ],
      "stateMutability": "nonpayable",
      "type": "constructor"
    },
    {
      "anonymous": false,
      "inputs": [
        {
          "indexed": false,
          "internalType": "uint256",
          "name": "reward",
          "type": "uint256"
        }
      ],
      "name": "BlockRewardSet",
      "type": "event"
    },
    {
      "anonymous": false,
      "inputs": [
        {
          "indexed": false,
          "internalType": "address",
          "name": "account",
          "type": "address"
        },
        {
          "indexed": false,
          "internalType": "uint256",
          "name": "amount",
          "type": "uint256"
        }
      ],
      "name": "Deposit",
      "type": "event"
    },
    {
      "anonymous": false,
      "inputs": [
        {
          "indexed": false,
          "internalType": "address",
          "name": "account",
          "type": "address"
        },
        {
          "indexed": false,
          "internalType": "uint256",
          "name": "amount",
          "type": "uint256"
        }
      ],
      "name": "OGSClaimed",
      "type": "event"
    },
    {
      "anonymous": false,
      "inputs": [
        {
          "indexed": true,
          "internalType": "address",
          "name": "previousOwner",
          "type": "address"
        },
        {
          "indexed": true,
          "internalType": "address",
          "name": "newOwner",
          "type": "address"
        }
      ],
      "name": "OwnershipTransferred",
      "type": "event"
    },
    {
      "anonymous": false,
      "inputs": [
        {
          "indexed": false,
          "internalType": "address",
          "name": "account",
          "type": "address"
        }
      ],
      "name": "Paused",
      "type": "event"
    },
    {
      "anonymous": false,
      "inputs": [
        {
          "indexed": false,
          "internalType": "address",
          "name": "account",
          "type": "address"
        }
      ],
      "name": "Unpaused",
      "type": "event"
    },
    {
      "anonymous": false,
      "inputs": [
        {
          "indexed": false,
          "internalType": "address",
          "name": "account",
          "type": "address"
        },
        {
          "indexed": false,
          "internalType": "uint256",
          "name": "amount",
          "type": "uint256"
        }
      ],
      "name": "Withdraw",
      "type": "event"
    },
    {
      "inputs": [],
      "name": "BlockReward",
      "outputs": [
        {
          "internalType": "uint256",
          "name": "",
          "type": "uint256"
        }
      ],
      "stateMutability": "view",
      "type": "function"
    },
    {
      "inputs": [],
      "name": "assetContract",
      "outputs": [
        {
          "internalType": "address",
          "name": "",
          "type": "address"
        }
      ],
      "stateMutability": "view",
      "type": "function"
    },
    {
      "inputs": [],
      "name": "ogsContract",
      "outputs": [
        {
          "internalType": "address",
          "name": "",
          "type": "address"
        }
      ],
      "stateMutability": "view",
      "type": "function"
    },
    {
      "inputs": [],
      "name": "owner",
      "outputs": [
        {
          "internalType": "address",
          "name": "",
          "type": "address"
        }
      ],
      "stateMutability": "view",
      "type": "function"
    },
    {
      "inputs": [],
      "name": "paused",
      "outputs": [
        {
          "internalType": "bool",
          "name": "",
          "type": "bool"
        }
      ],
      "stateMutability": "view",
      "type": "function"
    },
    {
      "inputs": [],
      "name": "renounceOwnership",
      "outputs": [],
      "stateMutability": "nonpayable",
      "type": "function"
    },
    {
      "inputs": [
        {
          "internalType": "address",
          "name": "newOwner",
          "type": "address"
        }
      ],
      "name": "transferOwnership",
      "outputs": [],
      "stateMutability": "nonpayable",
      "type": "function"
    },
    {
      "inputs": [
        {
          "internalType": "uint256",
          "name": "reward",
          "type": "uint256"
        }
      ],
      "name": "setBlockReward",
      "outputs": [],
      "stateMutability": "nonpayable",
      "type": "function"
    },
    {
      "inputs": [],
      "name": "pause",
      "outputs": [],
      "stateMutability": "nonpayable",
      "type": "function"
    },
    {
      "inputs": [],
      "name": "unpause",
      "outputs": [],
      "stateMutability": "nonpayable",
      "type": "function"
    },
    {
      "inputs": [
        {
          "internalType": "uint256",
          "name": "amount",
          "type": "uint256"
        }
      ],
      "name": "deposit",
      "outputs": [],
      "stateMutability": "nonpayable",
      "type": "function"
    },
    {
      "inputs": [],
      "name": "claimRewards",
      "outputs": [],
      "stateMutability": "nonpayable",
      "type": "function"
    },
    {
      "inputs": [
        {
          "internalType": "uint256",
          "name": "amount",
          "type": "uint256"
        }
      ],
      "name": "withdraw",
      "outputs": [],
      "stateMutability": "nonpayable",
      "type": "function"
    },
    {
      "inputs": [
        {
          "internalType": "address",
          "name": "account",
          "type": "address"
        }
      ],
      "name": "numStaked",
      "outputs": [
        {
          "internalType": "uint256",
          "name": "",
          "type": "uint256"
        }
      ],
      "stateMutability": "view",
      "type": "function"
    },
    {
      "inputs": [],
      "name": "totalStaked",
      "outputs": [
        {
          "internalType": "uint256",
          "name": "",
          "type": "uint256"
        }
      ],
      "stateMutability": "view",
      "type": "function"
    },
    {
      "inputs": [
        {
          "internalType": "address",
          "name": "account",
          "type": "address"
        }
      ],
      "name": "checkReward",
      "outputs": [
        {
          "internalType": "uint256",
          "name": "rewards",
          "type": "uint256"
        }
      ],
      "stateMutability": "view",
      "type": "function"
    }
  ],
  "bytecode": "0x60a06040526000600655600160095543600a5534801561001e57600080fd5b506040516200205f3803806200205f8339818101604052602081101561004357600080fd5b810190808051906020019092919050505060006100646101e860201b60201c565b9050806000806101000a81548173ffffffffffffffffffffffffffffffffffffffff021916908373ffffffffffffffffffffffffffffffffffffffff1602179055508073ffffffffffffffffffffffffffffffffffffffff16600073ffffffffffffffffffffffffffffffffffffffff167f8be0079c531659141344cd1fd0a4f28419497f9722a3daafe3b4186f6b6457e060405160405180910390a350600180819055506000600260006101000a81548160ff021916908315150217905550600073ffffffffffffffffffffffffffffffffffffffff168173ffffffffffffffffffffffffffffffffffffffff1614156101ab576040517f08c379a000000000000000000000000000000000000000000000000000000000815260040180806020018281038252602d81526020018062002032602d913960400191505060405180910390fd5b8073ffffffffffffffffffffffffffffffffffffffff1660808173ffffffffffffffffffffffffffffffffffffffff1660601b81525050506101f0565b600033905090565b60805160601c611e1a62000218600039806105e0528061091f5280610c615250611e1a6000f3fe608060405234801561001057600080fd5b50600436106101005760003560e01c8063817b1cd2116100975780639f448dfd116100665780639f448dfd146102a5578063b6b55f25146102d9578063c3c90e6414610307578063f2fde38b1461035f57610100565b8063817b1cd21461022b5780638456cb59146102495780638da5cb5b1461025357806398cf61011461028757610100565b80633f4ba83a116100d35780633f4ba83a146101c35780634d16304f146101cd5780635c975abb14610201578063715018a61461022157610100565b806308ee0c74146101055780631a18e7071461015d5780632e1a7d4d1461018b578063372500ab146101b9575b600080fd5b6101476004803603602081101561011b57600080fd5b81019080803573ffffffffffffffffffffffffffffffffffffffff1690602001909291905050506103a3565b6040518082815260200191505060405180910390f35b6101896004803603602081101561017357600080fd5b81019080803590602001909291905050506103ec565b005b6101b7600480360360208110156101a157600080fd5b810190808035906020019092919050505061043d565b005b6101c1610683565b005b6101cb61090b565b005b6101d561091d565b604051808273ffffffffffffffffffffffffffffffffffffffff16815260200191505060405180910390f35b610209610941565b60405180821515815260200191505060405180910390f35b610229610958565b005b610233610a1e565b6040518082815260200191505060405180910390f35b610251610a28565b005b61025b610a3a565b604051808273ffffffffffffffffffffffffffffffffffffffff16815260200191505060405180910390f35b61028f610a63565b6040518082815260200191505060405180910390f35b6102ad610a69565b604051808273ffffffffffffffffffffffffffffffffffffffff16815260200191505060405180910390f35b610305600480360360208110156102ef57600080fd5b8101908080359060200190929190505050610a81565b005b6103496004803603602081101561031d57600080fd5b81019080803573ffffffffffffffffffffffffffffffffffffffff169060200190929190505050610d05565b6040518082815260200191505060405180910390f35b6103a16004803603602081101561037557600080fd5b81019080803573ffffffffffffffffffffffffffffffffffffffff169060200190929190505050610ebd565b005b6000600360008373ffffffffffffffffffffffffffffffffffffffff1673ffffffffffffffffffffffffffffffffffffffff168152602001908152602001600020549050919050565b6103f4611008565b6103fc6110d2565b806006819055507fb54abaa50fadd2086c578558d4ecb1890a97696c927a0e7dbd9417704d8a2c55816040518082815260200191505060405180910390a150565b600260015414156104b6576040517f08c379a000000000000000000000000000000000000000000000000000000000815260040180806020018281038252601f8152602001807f5265656e7472616e637947756172643a207265656e7472616e742063616c6c0081525060200191505060405180910390fd5b6002600181905550600360003373ffffffffffffffffffffffffffffffffffffffff1673ffffffffffffffffffffffffffffffffffffffff16815260200190815260200160002054811115610573576040517f08c379a00000000000000000000000000000000000000000000000000000000081526004018080602001828103825260108152602001807f62616c616e63652065786365656465640000000000000000000000000000000081525060200191505060405180910390fd5b61057c336111b9565b80600360003373ffffffffffffffffffffffffffffffffffffffff1673ffffffffffffffffffffffffffffffffffffffff168152602001908152602001600020600082825403925050819055508060056000828254039250508190555061062433827f000000000000000000000000000000000000000000000000000000000000000073ffffffffffffffffffffffffffffffffffffffff166113549092919063ffffffff16565b7f884edad9ce6fa2440d8a54cc123490eb96d2768479d49ff9c7366125a94243643382604051808373ffffffffffffffffffffffffffffffffffffffff1681526020018281526020019250505060405180910390a16001808190555050565b600260015414156106fc576040517f08c379a000000000000000000000000000000000000000000000000000000000815260040180806020018281038252601f8152602001807f5265656e7472616e637947756172643a207265656e7472616e742063616c6c0081525060200191505060405180910390fd5b600260018190555061070c610941565b1561077f576040517f08c379a00000000000000000000000000000000000000000000000000000000081526004018080602001828103825260108152602001807f5061757361626c653a207061757365640000000000000000000000000000000081525060200191505060405180910390fd5b610788336111b9565b6000600460003373ffffffffffffffffffffffffffffffffffffffff1673ffffffffffffffffffffffffffffffffffffffff168152602001908152602001600020549050600460003373ffffffffffffffffffffffffffffffffffffffff1673ffffffffffffffffffffffffffffffffffffffff1681526020019081526020016000206000905573416947e6fc78f158fd9b775fa846b72d768879c273ffffffffffffffffffffffffffffffffffffffff166340c10f1933836040518363ffffffff1660e01b8152600401808373ffffffffffffffffffffffffffffffffffffffff16815260200182815260200192505050600060405180830381600087803b15801561089457600080fd5b505af11580156108a8573d6000803e3d6000fd5b505050507ff2902487b5dcfe9f81f539f9fcaf8a48e45ad7efa4f4402f578e38912b1da1713382604051808373ffffffffffffffffffffffffffffffffffffffff1681526020018281526020019250505060405180910390a15060018081905550565b610913611008565b61091b6113f6565b565b7f000000000000000000000000000000000000000000000000000000000000000081565b6000600260009054906101000a900460ff16905090565b610960611008565b600073ffffffffffffffffffffffffffffffffffffffff1660008054906101000a900473ffffffffffffffffffffffffffffffffffffffff1673ffffffffffffffffffffffffffffffffffffffff167f8be0079c531659141344cd1fd0a4f28419497f9722a3daafe3b4186f6b6457e060405160405180910390a360008060006101000a81548173ffffffffffffffffffffffffffffffffffffffff021916908373ffffffffffffffffffffffffffffffffffffffff160217905550565b6000600554905090565b610a30611008565b610a386114e1565b565b60008060009054906101000a900473ffffffffffffffffffffffffffffffffffffffff16905090565b60065481565b73416947e6fc78f158fd9b775fa846b72d768879c281565b60026001541415610afa576040517f08c379a000000000000000000000000000000000000000000000000000000000815260040180806020018281038252601f8152602001807f5265656e7472616e637947756172643a207265656e7472616e742063616c6c0081525060200191505060405180910390fd5b6002600181905550610b0a610941565b15610b7d576040517f08c379a00000000000000000000000000000000000000000000000000000000081526004018080602001828103825260108152602001807f5061757361626c653a207061757365640000000000000000000000000000000081525060200191505060405180910390fd5b60008111610bf3576040517f08c379a000000000000000000000000000000000000000000000000000000000815260040180806020018281038252600c8152602001807f7a65726f206465706f736974000000000000000000000000000000000000000081525060200191505060405180910390fd5b610bfc336111b9565b80600360003373ffffffffffffffffffffffffffffffffffffffff1673ffffffffffffffffffffffffffffffffffffffff1681526020019081526020016000206000828254019250508190555080600560008282540192505081905550610ca63330837f000000000000000000000000000000000000000000000000000000000000000073ffffffffffffffffffffffffffffffffffffffff166115cd909392919063ffffffff16565b7fe1fffcc4923d04b559f4d29a8bfc6cda04eb5b0d3c460751c2402c5c5cc9109c3382604051808373ffffffffffffffffffffffffffffffffffffffff1681526020018281526020019250505060405180910390a16001808190555050565b600080600360008473ffffffffffffffffffffffffffffffffffffffff1673ffffffffffffffffffffffffffffffffffffffff1681526020019081526020016000205490506000600860008573ffffffffffffffffffffffffffffffffffffffff1673ffffffffffffffffffffffffffffffffffffffff1681526020019081526020016000205490506000610dce60076000848152602001908152602001600020546007600060016009540381526020019081526020016000205461168e90919063ffffffff16565b90506000806005541115610e42576000610df3600a544361168e90919063ffffffff16565b90506000610e0c826006546116d890919063ffffffff16565b9050610e3d600554610e2f670de0b6b3a7640000846116d890919063ffffffff16565b61175e90919063ffffffff16565b925050505b610e71670de0b6b3a7640000610e63868486016116d890919063ffffffff16565b61175e90919063ffffffff16565b600460008873ffffffffffffffffffffffffffffffffffffffff1673ffffffffffffffffffffffffffffffffffffffff1681526020019081526020016000205401945050505050919050565b610ec5611008565b600073ffffffffffffffffffffffffffffffffffffffff168173ffffffffffffffffffffffffffffffffffffffff161415610f4b576040517f08c379a0000000000000000000000000000000000000000000000000000000008152600401808060200182810382526026815260200180611d4e6026913960400191505060405180910390fd5b8073ffffffffffffffffffffffffffffffffffffffff1660008054906101000a900473ffffffffffffffffffffffffffffffffffffffff1673ffffffffffffffffffffffffffffffffffffffff167f8be0079c531659141344cd1fd0a4f28419497f9722a3daafe3b4186f6b6457e060405160405180910390a3806000806101000a81548173ffffffffffffffffffffffffffffffffffffffff021916908373ffffffffffffffffffffffffffffffffffffffff16021790555050565b6110106117a8565b73ffffffffffffffffffffffffffffffffffffffff1660008054906101000a900473ffffffffffffffffffffffffffffffffffffffff1673ffffffffffffffffffffffffffffffffffffffff16146110d0576040517f08c379a00000000000000000000000000000000000000000000000000000000081526004018080602001828103825260208152602001807f4f776e61626c653a2063616c6c6572206973206e6f7420746865206f776e657281525060200191505060405180910390fd5b565b43600a5414156110e1576111b7565b600060055414156110f1576111b7565b6000611108600a544361168e90919063ffffffff16565b90506000611121826006546116d890919063ffffffff16565b90506000611154600554611146670de0b6b3a7640000856116d890919063ffffffff16565b61175e90919063ffffffff16565b905043600a8190555061118860076000600160095403815260200190815260200160002054826117b090919063ffffffff16565b600760006009548152602001908152602001600020819055506009600081548092919060010191905055505050505b565b6111c16110d2565b6000600360008373ffffffffffffffffffffffffffffffffffffffff1673ffffffffffffffffffffffffffffffffffffffff1681526020019081526020016000205490506000600860008473ffffffffffffffffffffffffffffffffffffffff1673ffffffffffffffffffffffffffffffffffffffff1681526020019081526020016000205490506000600160095403905060006112ba670de0b6b3a76400006112ac8661129e6007600089815260200190815260200160002054600760008981526020019081526020016000205461168e90919063ffffffff16565b6116d890919063ffffffff16565b61175e90919063ffffffff16565b905080600460008773ffffffffffffffffffffffffffffffffffffffff1673ffffffffffffffffffffffffffffffffffffffff1681526020019081526020016000206000828254019250508190555081600860008773ffffffffffffffffffffffffffffffffffffffff1673ffffffffffffffffffffffffffffffffffffffff168152602001908152602001600020819055505050505050565b6113f18363a9059cbb60e01b8484604051602401808373ffffffffffffffffffffffffffffffffffffffff16815260200182815260200192505050604051602081830303815290604052907bffffffffffffffffffffffffffffffffffffffffffffffffffffffff19166020820180517bffffffffffffffffffffffffffffffffffffffffffffffffffffffff8381831617835250505050611838565b505050565b6113fe610941565b611470576040517f08c379a00000000000000000000000000000000000000000000000000000000081526004018080602001828103825260148152602001807f5061757361626c653a206e6f742070617573656400000000000000000000000081525060200191505060405180910390fd5b6000600260006101000a81548160ff0219169083151502179055507f5db9ee0a495bf2e6ff9c91a7834c1ba4fdd244a5e8aa4e537bd38aeae4b073aa6114b46117a8565b604051808273ffffffffffffffffffffffffffffffffffffffff16815260200191505060405180910390a1565b6114e9610941565b1561155c576040517f08c379a00000000000000000000000000000000000000000000000000000000081526004018080602001828103825260108152602001807f5061757361626c653a207061757365640000000000000000000000000000000081525060200191505060405180910390fd5b6001600260006101000a81548160ff0219169083151502179055507f62e78cea01bee320cd4e420270b5ea74000d11b0c9f74754ebdbfc544b05a2586115a06117a8565b604051808273ffffffffffffffffffffffffffffffffffffffff16815260200191505060405180910390a1565b611688846323b872dd60e01b858585604051602401808473ffffffffffffffffffffffffffffffffffffffff1681526020018373ffffffffffffffffffffffffffffffffffffffff1681526020018281526020019350505050604051602081830303815290604052907bffffffffffffffffffffffffffffffffffffffffffffffffffffffff19166020820180517bffffffffffffffffffffffffffffffffffffffffffffffffffffffff8381831617835250505050611838565b50505050565b60006116d083836040518060400160405280601e81526020017f536166654d6174683a207375627472616374696f6e206f766572666c6f770000815250611927565b905092915050565b6000808314156116eb5760009050611758565b60008284029050828482816116fc57fe5b0414611753576040517f08c379a0000000000000000000000000000000000000000000000000000000008152600401808060200182810382526021815260200180611d9a6021913960400191505060405180910390fd5b809150505b92915050565b60006117a083836040518060400160405280601a81526020017f536166654d6174683a206469766973696f6e206279207a65726f0000000000008152506119e7565b905092915050565b600033905090565b60008082840190508381101561182e576040517f08c379a000000000000000000000000000000000000000000000000000000000815260040180806020018281038252601b8152602001807f536166654d6174683a206164646974696f6e206f766572666c6f77000000000081525060200191505060405180910390fd5b8091505092915050565b606061189a826040518060400160405280602081526020017f5361666545524332303a206c6f772d6c6576656c2063616c6c206661696c65648152508573ffffffffffffffffffffffffffffffffffffffff16611aad9092919063ffffffff16565b9050600081511115611922578080602001905160208110156118bb57600080fd5b8101908080519060200190929190505050611921576040517f08c379a000000000000000000000000000000000000000000000000000000000815260040180806020018281038252602a815260200180611dbb602a913960400191505060405180910390fd5b5b505050565b60008383111582906119d4576040517f08c379a00000000000000000000000000000000000000000000000000000000081526004018080602001828103825283818151815260200191508051906020019080838360005b8381101561199957808201518184015260208101905061197e565b50505050905090810190601f1680156119c65780820380516001836020036101000a031916815260200191505b509250505060405180910390fd5b5060008385039050809150509392505050565b60008083118290611a93576040517f08c379a00000000000000000000000000000000000000000000000000000000081526004018080602001828103825283818151815260200191508051906020019080838360005b83811015611a58578082015181840152602081019050611a3d565b50505050905090810190601f168015611a855780820380516001836020036101000a031916815260200191505b509250505060405180910390fd5b506000838581611a9f57fe5b049050809150509392505050565b6060611abc8484600085611ac5565b90509392505050565b606082471015611b20576040517f08c379a0000000000000000000000000000000000000000000000000000000008152600401808060200182810382526026815260200180611d746026913960400191505060405180910390fd5b611b2985611c6e565b611b9b576040517f08c379a000000000000000000000000000000000000000000000000000000000815260040180806020018281038252601d8152602001807f416464726573733a2063616c6c20746f206e6f6e2d636f6e747261637400000081525060200191505060405180910390fd5b600060608673ffffffffffffffffffffffffffffffffffffffff1685876040518082805190602001908083835b60208310611beb5780518252602082019150602081019050602083039250611bc8565b6001836020036101000a03801982511681845116808217855250505050505090500191505060006040518083038185875af1925050503d8060008114611c4d576040519150601f19603f3d011682016040523d82523d6000602084013e611c52565b606091505b5091509150611c62828286611c81565b92505050949350505050565b600080823b905060008111915050919050565b60608315611c9157829050611d46565b600083511115611ca45782518084602001fd5b816040517f08c379a00000000000000000000000000000000000000000000000000000000081526004018080602001828103825283818151815260200191508051906020019080838360005b83811015611d0b578082015181840152602081019050611cf0565b50505050905090810190601f168015611d385780820380516001836020036101000a031916815260200191505b509250505060405180910390fd5b939250505056fe4f776e61626c653a206e6577206f776e657220697320746865207a65726f2061646472657373416464726573733a20696e73756666696369656e742062616c616e636520666f722063616c6c536166654d6174683a206d756c7469706c69636174696f6e206f766572666c6f775361666545524332303a204552433230206f7065726174696f6e20646964206e6f742073756363656564a26469706673582212205a2314c35bb69684709b6e7d776ab893a3fc3ed2ffdceba9af6f2bafe9eb331064736f6c634300060c0033636f6e7374727563746f72efbc9a206173736574436f6e74726163745f206973207a65726f2061646472657373",
  "immutableReferences": {
    "3151": [
      {
        "length": 32,
        "start": 1504
      },
      {
        "length": 32,
        "start": 2335
      },
      {
        "length": 32,
        "start": 3169
      }
    ]
  },
  "source": "// SPDX-License-Identifier: MIT\r\n\r\npragma solidity ^0.6.12;\r\n\r\nimport \"./library.sol\";\r\n\r\n/**\r\n * @dev LP staking related to OURO/xxx pair\r\n */\r\ncontract LPStaking is Ownable, ReentrancyGuard,Pausable {\r\n    using SafeERC20 for IERC20;\r\n    using SafeMath for uint;\r\n    \r\n    uint256 internal constant SHARE_MULTIPLIER = 1e18; // share multiplier to avert division underflow\r\n    \r\n    address public immutable assetContract; // the asset to stake\r\n    address public constant ogsContract = 0x416947e6Fc78F158fd9B775fA846B72d768879c2;\r\n\r\n    mapping (address => uint256) private _balances; // tracking staker's value\r\n    mapping (address => uint256) internal _rewardBalance; // tracking staker's claimable reward tokens\r\n    uint256 private _totalStaked; // track total staked value\r\n    \r\n    /// @dev initial block reward\r\n    uint256 public BlockReward = 0;\r\n    \r\n    /// @dev round index mapping to accumulate share.\r\n    mapping (uint => uint) private _accShares;\r\n    /// @dev mark staker's highest settled round.\r\n    mapping (address => uint) private _settledRounds;\r\n    /// @dev a monotonic increasing round index, STARTS FROM 1\r\n    uint256 private _currentRound = 1;\r\n    // @dev last rewarded block\r\n    uint256 private _lastRewardBlock = block.number;\r\n    \r\n    /**\r\n     * ======================================================================================\r\n     * \r\n     * SYSTEM FUNCTIONS\r\n     *\r\n     * ======================================================================================\r\n     */\r\n    constructor(address assetContract_) public {\r\n        require(assetContract_ != address(0), \"constructor assetContract_ is zero address\");\r\n\r\n        assetContract = assetContract_; \r\n    }\r\n        \r\n    /**\r\n     * @dev set block reward\r\n     */\r\n    function setBlockReward(uint256 reward) external onlyOwner {\r\n        // settle previous rewards\r\n        updateReward();\r\n        // set new block reward\r\n        BlockReward = reward;\r\n            \r\n        // log\r\n        emit BlockRewardSet(reward);\r\n    }\r\n\r\n    /**\r\n     * @dev called by the owner to pause, triggers stopped state\r\n     **/\r\n    function pause() onlyOwner external { _pause(); }\r\n\r\n    /**\r\n    * @dev called by the owner to unpause, returns to normal state\r\n    */\r\n    function unpause() onlyOwner external { _unpause(); }\r\n    \r\n    /**\r\n     * ======================================================================================\r\n     * \r\n     * STAKING FUNCTIONS\r\n     *\r\n     * ======================================================================================\r\n     */\r\n     \r\n    /**\r\n     * @dev stake assets\r\n     */\r\n    function deposit(uint256 amount) external nonReentrant whenNotPaused {\r\n        require(amount > 0, \"zero deposit\");\r\n        // settle previous rewards\r\n        settleStaker(msg.sender);\r\n        \r\n        // modifiy\r\n        _balances[msg.sender] += amount;\r\n        _totalStaked += amount;\r\n        \r\n        // transfer asset from AssetContract\r\n        IERC20(assetContract).safeTransferFrom(msg.sender, address(this), amount);\r\n        \r\n        // log\r\n        emit Deposit(msg.sender, amount);\r\n    }\r\n    \r\n    /**\r\n     * @dev claim rewards\r\n     */\r\n    function claimRewards() external nonReentrant whenNotPaused {\r\n        // settle previous rewards\r\n        settleStaker(msg.sender);\r\n        \r\n        // reward balance modification\r\n        uint amountReward = _rewardBalance[msg.sender];\r\n        delete _rewardBalance[msg.sender]; // zero reward balance\r\n\r\n        // mint reward to sender\r\n        IOGSToken(ogsContract).mint(msg.sender, amountReward);\r\n        \r\n        // log\r\n        emit OGSClaimed(msg.sender, amountReward);\r\n    }\r\n    \r\n    /**\r\n     * @dev withdraw the staked assets\r\n     */\r\n    function withdraw(uint256 amount) external nonReentrant {\r\n        require(amount <= _balances[msg.sender], \"balance exceeded\");\r\n\r\n        // settle previous rewards\r\n        settleStaker(msg.sender);\r\n\r\n        // modifiy\r\n        _balances[msg.sender] -= amount;\r\n        _totalStaked -= amount;\r\n        \r\n        // transfer assets back\r\n        IERC20(assetContract).safeTransfer(msg.sender, amount);\r\n        \r\n        // log\r\n        emit Withdraw(msg.sender, amount);\r\n    }\r\n\r\n    /**\r\n     * @dev settle a staker\r\n     */\r\n    function settleStaker(address account) internal {\r\n        // update reward snapshot\r\n        updateReward();\r\n        \r\n        // settle this account\r\n        uint accountCollateral = _balances[account];\r\n        uint lastSettledRound = _settledRounds[account];\r\n        uint newSettledRound = _currentRound - 1;\r\n        \r\n        // round rewards\r\n        uint roundReward = _accShares[newSettledRound].sub(_accShares[lastSettledRound])\r\n                                .mul(accountCollateral)\r\n                                .div(SHARE_MULTIPLIER);  // remember to div by SHARE_MULTIPLIER    \r\n        \r\n        // update reward balance\r\n        _rewardBalance[account] += roundReward;\r\n        \r\n        // mark new settled reward round\r\n        _settledRounds[account] = newSettledRound;\r\n    }\r\n     \r\n    /**\r\n     * @dev update accumulated block reward until current block\r\n     */\r\n    function updateReward() internal {\r\n        // skip round changing in the same block\r\n        if (_lastRewardBlock == block.number) {\r\n            return;\r\n        }\r\n    \r\n        // postpone rewarding if there is none staker\r\n        if (_totalStaked == 0) {\r\n            return;\r\n        }\r\n\r\n        // settle reward share for [_lastRewardBlock, block.number]\r\n        uint blocksToReward = block.number.sub(_lastRewardBlock);\r\n        uint mintedReward = BlockReward.mul(blocksToReward);\r\n\r\n        // reward share\r\n        uint roundShare = mintedReward.mul(SHARE_MULTIPLIER)\r\n                                        .div(_totalStaked);\r\n                                \r\n        // mark block rewarded;\r\n        _lastRewardBlock = block.number;\r\n            \r\n        // accumulate reward share\r\n        _accShares[_currentRound] = roundShare.add(_accShares[_currentRound-1]); \r\n       \r\n        // next round setting                                 \r\n        _currentRound++;\r\n        \r\n    }\r\n    \r\n    /**\r\n     * ======================================================================================\r\n     * \r\n     * VIEW FUNCTIONS\r\n     *\r\n     * ======================================================================================\r\n     */\r\n        \r\n    /**\r\n     * @dev return value staked for an account\r\n     */\r\n    function numStaked(address account) external view returns (uint256) { return _balances[account]; }\r\n\r\n    /**\r\n     * @dev return total staked value\r\n     */\r\n    function totalStaked() external view returns (uint256) { return _totalStaked; }\r\n     \r\n    /**\r\n     * @notice sum unclaimed reward;\r\n     */\r\n    function checkReward(address account) external view returns(uint256 rewards) {\r\n        uint accountCollateral = _balances[account];\r\n        uint lastSettledRound = _settledRounds[account];\r\n        \r\n        // reward = settled rewards + unsettled rewards + newMined rewards\r\n        uint unsettledShare = _accShares[_currentRound-1].sub(_accShares[lastSettledRound]);\r\n        \r\n        uint newMinedShare;\r\n        if (_totalStaked > 0) {\r\n            uint blocksToReward = block.number.sub(_lastRewardBlock);\r\n            uint mintedReward = BlockReward.mul(blocksToReward);\r\n    \r\n            // reward share\r\n            newMinedShare = mintedReward.mul(SHARE_MULTIPLIER)\r\n                                        .div(_totalStaked);\r\n        }\r\n        \r\n        return _rewardBalance[account] + (unsettledShare + newMinedShare).mul(accountCollateral)\r\n                                            .div(SHARE_MULTIPLIER);  // remember to div by SHARE_MULTIPLIER;\r\n    }\r\n    \r\n    /**\r\n     * ======================================================================================\r\n     * \r\n     * STAKING EVENTS\r\n     *\r\n     * ======================================================================================\r\n     */\r\n     event Deposit(address account, uint256 amount);\r\n     event Withdraw(address account, uint256 amount);\r\n     event OGSClaimed(address account, uint256 amount);\r\n     event BlockRewardSet(uint256 reward);\r\n}",
  "sourcePath": "C:\\Users\\RangerHu\\Desktop\\Ouro Auto Compound\\master\\ouro-auto-compound\\contracts\\lp_stacking.sol",
  "compiler": {
    "name": "solc",
    "version": "0.6.12+commit.27d51765.Emscripten.clang"
  },
  "schemaVersion": "3.4.4",
  "updatedAt": "2022-01-29T15:02:17.169Z",
  "devdoc": {
    "details": "LP staking related to OURO/xxx pair",
    "kind": "dev",
    "methods": {
      "claimRewards()": {
        "details": "claim rewards"
      },
      "deposit(uint256)": {
        "details": "stake assets"
      },
      "numStaked(address)": {
        "details": "return value staked for an account"
      },
      "owner()": {
        "details": "Returns the address of the current owner."
      },
      "pause()": {
        "details": "called by the owner to pause, triggers stopped state*"
      },
      "paused()": {
        "details": "Returns true if the contract is paused, and false otherwise."
      },
      "renounceOwnership()": {
        "details": "Leaves the contract without owner. It will not be possible to call `onlyOwner` functions anymore. Can only be called by the current owner. NOTE: Renouncing ownership will leave the contract without an owner, thereby removing any functionality that is only available to the owner."
      },
      "setBlockReward(uint256)": {
        "details": "set block reward"
      },
      "totalStaked()": {
        "details": "return total staked value"
      },
      "transferOwnership(address)": {
        "details": "Transfers ownership of the contract to a new account (`newOwner`). Can only be called by the current owner."
      },
      "unpause()": {
        "details": "called by the owner to unpause, returns to normal state"
      },
      "withdraw(uint256)": {
        "details": "withdraw the staked assets"
      }
    },
    "stateVariables": {
      "BlockReward": {
        "details": "initial block reward"
      },
      "_accShares": {
        "details": "round index mapping to accumulate share."
      },
      "_currentRound": {
        "details": "a monotonic increasing round index, STARTS FROM 1"
      },
      "_settledRounds": {
        "details": "mark staker's highest settled round."
      }
    },
    "version": 1
  },
  "userdoc": {
    "events": {
      "Deposit(address,uint256)": {
        "notice": "======================================================================================  STAKING EVENTS ======================================================================================"
      }
    },
    "kind": "user",
    "methods": {
      "checkReward(address)": {
        "notice": "sum unclaimed reward;"
      },
      "constructor": "======================================================================================  SYSTEM FUNCTIONS ======================================================================================"
    },
    "version": 1
  }
}