{
  "contractName": "OGSToken",
  "abi": [
    {
      "inputs": [
        {
          "internalType": "string",
          "name": "_name",
          "type": "string"
        },
        {
          "internalType": "string",
          "name": "_symbol",
          "type": "string"
        },
        {
          "internalType": "uint8",
          "name": "_decimals",
          "type": "uint8"
        },
        {
          "internalType": "uint256",
          "name": "_initialSupply",
          "type": "uint256"
        }
      ],
      "stateMutability": "nonpayable",
      "type": "constructor"
    },
    {
      "anonymous": false,
      "inputs": [
        {
          "indexed": true,
          "internalType": "address",
          "name": "owner",
          "type": "address"
        },
        {
          "indexed": true,
          "internalType": "address",
          "name": "spender",
          "type": "address"
        },
        {
          "indexed": false,
          "internalType": "uint256",
          "name": "value",
          "type": "uint256"
        }
      ],
      "name": "Approval",
      "type": "event"
    },
    {
      "anonymous": false,
      "inputs": [
        {
          "indexed": false,
          "internalType": "address",
          "name": "account",
          "type": "address"
        }
      ],
      "name": "Mintable",
      "type": "event"
    },
    {
      "anonymous": false,
      "inputs": [
        {
          "indexed": true,
          "internalType": "address",
          "name": "previousOwner",
          "type": "address"
        },
        {
          "indexed": true,
          "internalType": "address",
          "name": "newOwner",
          "type": "address"
        }
      ],
      "name": "OwnershipTransferred",
      "type": "event"
    },
    {
      "anonymous": false,
      "inputs": [
        {
          "indexed": true,
          "internalType": "address",
          "name": "from",
          "type": "address"
        },
        {
          "indexed": true,
          "internalType": "address",
          "name": "to",
          "type": "address"
        },
        {
          "indexed": false,
          "internalType": "uint256",
          "name": "value",
          "type": "uint256"
        }
      ],
      "name": "Transfer",
      "type": "event"
    },
    {
      "anonymous": false,
      "inputs": [
        {
          "indexed": false,
          "internalType": "address",
          "name": "account",
          "type": "address"
        }
      ],
      "name": "Unmintable",
      "type": "event"
    },
    {
      "inputs": [
        {
          "internalType": "address",
          "name": "owner",
          "type": "address"
        },
        {
          "internalType": "address",
          "name": "spender",
          "type": "address"
        }
      ],
      "name": "allowance",
      "outputs": [
        {
          "internalType": "uint256",
          "name": "",
          "type": "uint256"
        }
      ],
      "stateMutability": "view",
      "type": "function"
    },
    {
      "inputs": [
        {
          "internalType": "address",
          "name": "spender",
          "type": "address"
        },
        {
          "internalType": "uint256",
          "name": "amount",
          "type": "uint256"
        }
      ],
      "name": "approve",
      "outputs": [
        {
          "internalType": "bool",
          "name": "",
          "type": "bool"
        }
      ],
      "stateMutability": "nonpayable",
      "type": "function"
    },
    {
      "inputs": [
        {
          "internalType": "address",
          "name": "account",
          "type": "address"
        }
      ],
      "name": "balanceOf",
      "outputs": [
        {
          "internalType": "uint256",
          "name": "",
          "type": "uint256"
        }
      ],
      "stateMutability": "view",
      "type": "function"
    },
    {
      "inputs": [],
      "name": "decimals",
      "outputs": [
        {
          "internalType": "uint8",
          "name": "",
          "type": "uint8"
        }
      ],
      "stateMutability": "view",
      "type": "function"
    },
    {
      "inputs": [
        {
          "internalType": "address",
          "name": "spender",
          "type": "address"
        },
        {
          "internalType": "uint256",
          "name": "subtractedValue",
          "type": "uint256"
        }
      ],
      "name": "decreaseAllowance",
      "outputs": [
        {
          "internalType": "bool",
          "name": "",
          "type": "bool"
        }
      ],
      "stateMutability": "nonpayable",
      "type": "function"
    },
    {
      "inputs": [
        {
          "internalType": "address",
          "name": "spender",
          "type": "address"
        },
        {
          "internalType": "uint256",
          "name": "addedValue",
          "type": "uint256"
        }
      ],
      "name": "increaseAllowance",
      "outputs": [
        {
          "internalType": "bool",
          "name": "",
          "type": "bool"
        }
      ],
      "stateMutability": "nonpayable",
      "type": "function"
    },
    {
      "inputs": [
        {
          "internalType": "uint256",
          "name": "",
          "type": "uint256"
        }
      ],
      "name": "mintableAccounts",
      "outputs": [
        {
          "internalType": "address",
          "name": "",
          "type": "address"
        }
      ],
      "stateMutability": "view",
      "type": "function"
    },
    {
      "inputs": [
        {
          "internalType": "address",
          "name": "",
          "type": "address"
        }
      ],
      "name": "mintableGroup",
      "outputs": [
        {
          "internalType": "bool",
          "name": "",
          "type": "bool"
        }
      ],
      "stateMutability": "view",
      "type": "function"
    },
    {
      "inputs": [],
      "name": "name",
      "outputs": [
        {
          "internalType": "string",
          "name": "",
          "type": "string"
        }
      ],
      "stateMutability": "view",
      "type": "function"
    },
    {
      "inputs": [],
      "name": "owner",
      "outputs": [
        {
          "internalType": "address",
          "name": "",
          "type": "address"
        }
      ],
      "stateMutability": "view",
      "type": "function"
    },
    {
      "inputs": [],
      "name": "renounceOwnership",
      "outputs": [],
      "stateMutability": "nonpayable",
      "type": "function"
    },
    {
      "inputs": [],
      "name": "symbol",
      "outputs": [
        {
          "internalType": "string",
          "name": "",
          "type": "string"
        }
      ],
      "stateMutability": "view",
      "type": "function"
    },
    {
      "inputs": [],
      "name": "totalSupply",
      "outputs": [
        {
          "internalType": "uint256",
          "name": "",
          "type": "uint256"
        }
      ],
      "stateMutability": "view",
      "type": "function"
    },
    {
      "inputs": [
        {
          "internalType": "address",
          "name": "recipient",
          "type": "address"
        },
        {
          "internalType": "uint256",
          "name": "amount",
          "type": "uint256"
        }
      ],
      "name": "transfer",
      "outputs": [
        {
          "internalType": "bool",
          "name": "",
          "type": "bool"
        }
      ],
      "stateMutability": "nonpayable",
      "type": "function"
    },
    {
      "inputs": [
        {
          "internalType": "address",
          "name": "sender",
          "type": "address"
        },
        {
          "internalType": "address",
          "name": "recipient",
          "type": "address"
        },
        {
          "internalType": "uint256",
          "name": "amount",
          "type": "uint256"
        }
      ],
      "name": "transferFrom",
      "outputs": [
        {
          "internalType": "bool",
          "name": "",
          "type": "bool"
        }
      ],
      "stateMutability": "nonpayable",
      "type": "function"
    },
    {
      "inputs": [
        {
          "internalType": "address",
          "name": "newOwner",
          "type": "address"
        }
      ],
      "name": "transferOwnership",
      "outputs": [],
      "stateMutability": "nonpayable",
      "type": "function"
    },
    {
      "inputs": [
        {
          "internalType": "address",
          "name": "account",
          "type": "address"
        },
        {
          "internalType": "bool",
          "name": "allow",
          "type": "bool"
        }
      ],
      "name": "setMintable",
      "outputs": [],
      "stateMutability": "nonpayable",
      "type": "function"
    },
    {
      "inputs": [],
      "name": "revokeAllMintable",
      "outputs": [],
      "stateMutability": "nonpayable",
      "type": "function"
    },
    {
      "inputs": [
        {
          "internalType": "address",
          "name": "account",
          "type": "address"
        },
        {
          "internalType": "uint256",
          "name": "amount",
          "type": "uint256"
        }
      ],
      "name": "mint",
      "outputs": [],
      "stateMutability": "nonpayable",
      "type": "function"
    },
    {
      "inputs": [
        {
          "internalType": "uint256",
          "name": "amount",
          "type": "uint256"
        }
      ],
      "name": "burn",
      "outputs": [],
      "stateMutability": "nonpayable",
      "type": "function"
    },
    {
      "inputs": [
        {
          "internalType": "address[]",
          "name": "recipients",
          "type": "address[]"
        },
        {
          "internalType": "uint256[]",
          "name": "amounts",
          "type": "uint256[]"
        }
      ],
      "name": "batchTransfer",
      "outputs": [],
      "stateMutability": "nonpayable",
      "type": "function"
    }
  ],
  "bytecode": "0x60806040523480156200001157600080fd5b5060405162002b5538038062002b55833981810160405260808110156200003757600080fd5b81019080805160405193929190846401000000008211156200005857600080fd5b838201915060208201858111156200006f57600080fd5b82518660018202830111640100000000821117156200008d57600080fd5b8083526020830192505050908051906020019080838360005b83811015620000c3578082015181840152602081019050620000a6565b50505050905090810190601f168015620000f15780820380516001836020036101000a031916815260200191505b50604052602001805160405193929190846401000000008211156200011557600080fd5b838201915060208201858111156200012c57600080fd5b82518660018202830111640100000000821117156200014a57600080fd5b8083526020830192505050908051906020019080838360005b838110156200018057808201518184015260208101905062000163565b50505050905090810190601f168015620001ae5780820380516001836020036101000a031916815260200191505b5060405260200180519060200190929190805190602001909291905050506000620001de6200031f60201b60201c565b905080600660006101000a81548173ffffffffffffffffffffffffffffffffffffffff021916908373ffffffffffffffffffffffffffffffffffffffff1602179055508073ffffffffffffffffffffffffffffffffffffffff16600073ffffffffffffffffffffffffffffffffffffffff167f8be0079c531659141344cd1fd0a4f28419497f9722a3daafe3b4186f6b6457e060405160405180910390a35083600290805190602001906200029592919062000808565b508260039080519060200190620002ae92919062000808565b5081600460006101000a81548160ff021916908360ff160217905550620002ec620002de6200032760201b60201c565b60016200035160201b60201c565b62000315620003006200031f60201b60201c565b8360ff16600a0a8302620004c760201b60201c565b50505050620008ae565b600033905090565b6000600660009054906101000a900473ffffffffffffffffffffffffffffffffffffffff16905090565b62000361620006a560201b60201c565b80600760008473ffffffffffffffffffffffffffffffffffffffff1673ffffffffffffffffffffffffffffffffffffffff16815260200190815260200160002060006101000a81548160ff0219169083151502179055506008829080600181540180825580915050600190039060005260206000200160009091909190916101000a81548173ffffffffffffffffffffffffffffffffffffffff021916908373ffffffffffffffffffffffffffffffffffffffff160217905550801562000475577f8fc6bf72ae36e2e0d306c3344626c34ed9bbc8c82fe8289b2f7984709463755182604051808273ffffffffffffffffffffffffffffffffffffffff16815260200191505060405180910390a1620004c3565b7fb4fa1ea6b9ba3d53e901dbf2b924fff22ac6e0658eecffa8dbd101ff61fc839d82604051808273ffffffffffffffffffffffffffffffffffffffff16815260200191505060405180910390a15b5050565b600073ffffffffffffffffffffffffffffffffffffffff168273ffffffffffffffffffffffffffffffffffffffff1614156200056b576040517f08c379a000000000000000000000000000000000000000000000000000000000815260040180806020018281038252601f8152602001807f45524332303a206d696e7420746f20746865207a65726f20616464726573730081525060200191505060405180910390fd5b6200057f600083836200077a60201b60201c565b6200059b816005546200077f60201b6200157b1790919060201c565b600581905550620005f9816000808573ffffffffffffffffffffffffffffffffffffffff1673ffffffffffffffffffffffffffffffffffffffff168152602001908152602001600020546200077f60201b6200157b1790919060201c565b6000808473ffffffffffffffffffffffffffffffffffffffff1673ffffffffffffffffffffffffffffffffffffffff168152602001908152602001600020819055508173ffffffffffffffffffffffffffffffffffffffff16600073ffffffffffffffffffffffffffffffffffffffff167fddf252ad1be2c89b69c2b068fc378daa952ba7f163c4a11628f55a4df523b3ef836040518082815260200191505060405180910390a35050565b620006b56200031f60201b60201c565b73ffffffffffffffffffffffffffffffffffffffff16600660009054906101000a900473ffffffffffffffffffffffffffffffffffffffff1673ffffffffffffffffffffffffffffffffffffffff161462000778576040517f08c379a00000000000000000000000000000000000000000000000000000000081526004018080602001828103825260208152602001807f4f776e61626c653a2063616c6c6572206973206e6f7420746865206f776e657281525060200191505060405180910390fd5b565b505050565b600080828401905083811015620007fe576040517f08c379a000000000000000000000000000000000000000000000000000000000815260040180806020018281038252601b8152602001807f536166654d6174683a206164646974696f6e206f766572666c6f77000000000081525060200191505060405180910390fd5b8091505092915050565b828054600181600116156101000203166002900490600052602060002090601f016020900481019282601f106200084b57805160ff19168380011785556200087c565b828001600101855582156200087c579182015b828111156200087b5782518255916020019190600101906200085e565b5b5090506200088b91906200088f565b5090565b5b80821115620008aa57600081600090555060010162000890565b5090565b61229780620008be6000396000f3fe608060405234801561001057600080fd5b50600436106101375760003560e01c806370a08231116100b8578063a457c2d71161007c578063a457c2d71461068d578063a9059cbb146106f1578063dd62ed3e14610755578063ec49c938146107cd578063f2fde38b14610827578063f7eb06c41461086b57610137565b806370a0823114610428578063715018a61461048057806388d695b21461048a5780638da5cb5b146105d657806395d89b411461060a57610137565b8063313ce567116100ff578063313ce5671461031d578063395093511461033e57806340c10f19146103a257806342966c68146103f057806351d731e11461041e57610137565b806306fdde031461013c578063095ea7b3146101bf57806318160ddd14610223578063194efaa61461024157806323b872dd14610299575b600080fd5b6101446108bb565b6040518080602001828103825283818151815260200191508051906020019080838360005b83811015610184578082015181840152602081019050610169565b50505050905090810190601f1680156101b15780820380516001836020036101000a031916815260200191505b509250505060405180910390f35b61020b600480360360408110156101d557600080fd5b81019080803573ffffffffffffffffffffffffffffffffffffffff16906020019092919080359060200190929190505050610959565b60405180821515815260200191505060405180910390f35b61022b6109ea565b6040518082815260200191505060405180910390f35b61026d6004803603602081101561025757600080fd5b81019080803590602001909291905050506109f4565b604051808273ffffffffffffffffffffffffffffffffffffffff16815260200191505060405180910390f35b610305600480360360608110156102af57600080fd5b81019080803573ffffffffffffffffffffffffffffffffffffffff169060200190929190803573ffffffffffffffffffffffffffffffffffffffff16906020019092919080359060200190929190505050610a30565b60405180821515815260200191505060405180910390f35b610325610b09565b604051808260ff16815260200191505060405180910390f35b61038a6004803603604081101561035457600080fd5b81019080803573ffffffffffffffffffffffffffffffffffffffff16906020019092919080359060200190929190505050610b1c565b60405180821515815260200191505060405180910390f35b6103ee600480360360408110156103b857600080fd5b81019080803573ffffffffffffffffffffffffffffffffffffffff16906020019092919080359060200190929190505050610bcf565b005b61041c6004803603602081101561040657600080fd5b8101908080359060200190929190505050610c9c565b005b610426610d6f565b005b61046a6004803603602081101561043e57600080fd5b81019080803573ffffffffffffffffffffffffffffffffffffffff169060200190929190505050610e31565b6040518082815260200191505060405180910390f35b610488610e79565b005b6105d4600480360360408110156104a057600080fd5b81019080803590602001906401000000008111156104bd57600080fd5b8201836020820111156104cf57600080fd5b803590602001918460208302840111640100000000831117156104f157600080fd5b919080806020026020016040519081016040528093929190818152602001838360200280828437600081840152601f19601f8201169050808301925050505050505091929192908035906020019064010000000081111561055157600080fd5b82018360208201111561056357600080fd5b8035906020019184602083028401116401000000008311171561058557600080fd5b919080806020026020016040519081016040528093929190818152602001838360200280828437600081840152601f19601f820116905080830192505050505050509192919290505050610f42565b005b6105de611067565b604051808273ffffffffffffffffffffffffffffffffffffffff16815260200191505060405180910390f35b610612611091565b6040518080602001828103825283818151815260200191508051906020019080838360005b83811015610652578082015181840152602081019050610637565b50505050905090810190601f16801561067f5780820380516001836020036101000a031916815260200191505b509250505060405180910390f35b6106d9600480360360408110156106a357600080fd5b81019080803573ffffffffffffffffffffffffffffffffffffffff1690602001909291908035906020019092919050505061112f565b60405180821515815260200191505060405180910390f35b61073d6004803603604081101561070757600080fd5b81019080803573ffffffffffffffffffffffffffffffffffffffff169060200190929190803590602001909291905050506111fc565b60405180821515815260200191505060405180910390f35b6107b76004803603604081101561076b57600080fd5b81019080803573ffffffffffffffffffffffffffffffffffffffff169060200190929190803573ffffffffffffffffffffffffffffffffffffffff16906020019092919050505061121a565b6040518082815260200191505060405180910390f35b61080f600480360360208110156107e357600080fd5b81019080803573ffffffffffffffffffffffffffffffffffffffff1690602001909291905050506112a1565b60405180821515815260200191505060405180910390f35b6108696004803603602081101561083d57600080fd5b81019080803573ffffffffffffffffffffffffffffffffffffffff1690602001909291905050506112c1565b005b6108b96004803603604081101561088157600080fd5b81019080803573ffffffffffffffffffffffffffffffffffffffff16906020019092919080351515906020019092919050505061140f565b005b60028054600181600116156101000203166002900480601f0160208091040260200160405190810160405280929190818152602001828054600181600116156101000203166002900480156109515780601f1061092657610100808354040283529160200191610951565b820191906000526020600020905b81548152906001019060200180831161093457829003601f168201915b505050505081565b60008061096d610967611603565b8561121a565b14806109795750600082145b6109ce576040517f08c379a000000000000000000000000000000000000000000000000000000000815260040180806020018281038252604a8152602001806121f3604a913960600191505060405180910390fd5b6109e06109d9611603565b848461160b565b6001905092915050565b6000600554905090565b60088181548110610a0157fe5b906000526020600020016000915054906101000a900473ffffffffffffffffffffffffffffffffffffffff1681565b6000610a3d848484611802565b610afe84610a49611603565b610af98560405180606001604052806028815260200161211b60289139600160008b73ffffffffffffffffffffffffffffffffffffffff1673ffffffffffffffffffffffffffffffffffffffff1681526020019081526020016000206000610aaf611603565b73ffffffffffffffffffffffffffffffffffffffff1673ffffffffffffffffffffffffffffffffffffffff16815260200190815260200160002054611ac39092919063ffffffff16565b61160b565b600190509392505050565b600460009054906101000a900460ff1681565b6000610bc5610b29611603565b84610bc08560016000610b3a611603565b73ffffffffffffffffffffffffffffffffffffffff1673ffffffffffffffffffffffffffffffffffffffff16815260200190815260200160002060008973ffffffffffffffffffffffffffffffffffffffff1673ffffffffffffffffffffffffffffffffffffffff1681526020019081526020016000205461157b90919063ffffffff16565b61160b565b6001905092915050565b600760003373ffffffffffffffffffffffffffffffffffffffff1673ffffffffffffffffffffffffffffffffffffffff16815260200190815260200160002060009054906101000a900460ff16610c8e576040517f08c379a000000000000000000000000000000000000000000000000000000000815260040180806020018281038252601a8152602001807f4f47533a206e6f7420696e206d696e7461626c652067726f757000000000000081525060200191505060405180910390fd5b610c988282611b83565b5050565b600760003373ffffffffffffffffffffffffffffffffffffffff1673ffffffffffffffffffffffffffffffffffffffff16815260200190815260200160002060009054906101000a900460ff16610d5b576040517f08c379a000000000000000000000000000000000000000000000000000000000815260040180806020018281038252601a8152602001807f4f47533a206e6f7420696e206d696e7461626c652067726f757000000000000081525060200191505060405180910390fd5b610d6c610d66611603565b82611d4a565b50565b610d77611f0e565b6000600880549050905060005b81811015610e1f576007600060088381548110610d9d57fe5b9060005260206000200160009054906101000a900473ffffffffffffffffffffffffffffffffffffffff1673ffffffffffffffffffffffffffffffffffffffff1673ffffffffffffffffffffffffffffffffffffffff16815260200190815260200160002060006101000a81549060ff02191690558080600101915050610d84565b5060086000610e2e9190612029565b50565b60008060008373ffffffffffffffffffffffffffffffffffffffff1673ffffffffffffffffffffffffffffffffffffffff168152602001908152602001600020549050919050565b610e81611f0e565b600073ffffffffffffffffffffffffffffffffffffffff16600660009054906101000a900473ffffffffffffffffffffffffffffffffffffffff1673ffffffffffffffffffffffffffffffffffffffff167f8be0079c531659141344cd1fd0a4f28419497f9722a3daafe3b4186f6b6457e060405160405180910390a36000600660006101000a81548173ffffffffffffffffffffffffffffffffffffffff021916908373ffffffffffffffffffffffffffffffffffffffff160217905550565b6000825111610fb9576040517f08c379a00000000000000000000000000000000000000000000000000000000081526004018080602001828103825260208152602001807f4f47533a206c65617374206f6e6520726563697069656e74206164647265737381525060200191505060405180910390fd5b8051825114611013576040517f08c379a00000000000000000000000000000000000000000000000000000000081526004018080602001828103825260468152602001806121646046913960600191505060405180910390fd5b60005b82518110156110625761105761102a611603565b84838151811061103657fe5b602002602001015184848151811061104a57fe5b6020026020010151611802565b806001019050611016565b505050565b6000600660009054906101000a900473ffffffffffffffffffffffffffffffffffffffff16905090565b60038054600181600116156101000203166002900480601f0160208091040260200160405190810160405280929190818152602001828054600181600116156101000203166002900480156111275780601f106110fc57610100808354040283529160200191611127565b820191906000526020600020905b81548152906001019060200180831161110a57829003601f168201915b505050505081565b60006111f261113c611603565b846111ed8560405180606001604052806025815260200161223d6025913960016000611166611603565b73ffffffffffffffffffffffffffffffffffffffff1673ffffffffffffffffffffffffffffffffffffffff16815260200190815260200160002060008a73ffffffffffffffffffffffffffffffffffffffff1673ffffffffffffffffffffffffffffffffffffffff16815260200190815260200160002054611ac39092919063ffffffff16565b61160b565b6001905092915050565b6000611210611209611603565b8484611802565b6001905092915050565b6000600160008473ffffffffffffffffffffffffffffffffffffffff1673ffffffffffffffffffffffffffffffffffffffff16815260200190815260200160002060008373ffffffffffffffffffffffffffffffffffffffff1673ffffffffffffffffffffffffffffffffffffffff16815260200190815260200160002054905092915050565b60076020528060005260406000206000915054906101000a900460ff1681565b6112c9611f0e565b600073ffffffffffffffffffffffffffffffffffffffff168173ffffffffffffffffffffffffffffffffffffffff16141561134f576040517f08c379a00000000000000000000000000000000000000000000000000000000081526004018080602001828103825260268152602001806120ad6026913960400191505060405180910390fd5b8073ffffffffffffffffffffffffffffffffffffffff16600660009054906101000a900473ffffffffffffffffffffffffffffffffffffffff1673ffffffffffffffffffffffffffffffffffffffff167f8be0079c531659141344cd1fd0a4f28419497f9722a3daafe3b4186f6b6457e060405160405180910390a380600660006101000a81548173ffffffffffffffffffffffffffffffffffffffff021916908373ffffffffffffffffffffffffffffffffffffffff16021790555050565b611417611f0e565b80600760008473ffffffffffffffffffffffffffffffffffffffff1673ffffffffffffffffffffffffffffffffffffffff16815260200190815260200160002060006101000a81548160ff0219169083151502179055506008829080600181540180825580915050600190039060005260206000200160009091909190916101000a81548173ffffffffffffffffffffffffffffffffffffffff021916908373ffffffffffffffffffffffffffffffffffffffff1602179055508015611529577f8fc6bf72ae36e2e0d306c3344626c34ed9bbc8c82fe8289b2f7984709463755182604051808273ffffffffffffffffffffffffffffffffffffffff16815260200191505060405180910390a1611577565b7fb4fa1ea6b9ba3d53e901dbf2b924fff22ac6e0658eecffa8dbd101ff61fc839d82604051808273ffffffffffffffffffffffffffffffffffffffff16815260200191505060405180910390a15b5050565b6000808284019050838110156115f9576040517f08c379a000000000000000000000000000000000000000000000000000000000815260040180806020018281038252601b8152602001807f536166654d6174683a206164646974696f6e206f766572666c6f77000000000081525060200191505060405180910390fd5b8091505092915050565b600033905090565b600073ffffffffffffffffffffffffffffffffffffffff168373ffffffffffffffffffffffffffffffffffffffff161415611691576040517f08c379a00000000000000000000000000000000000000000000000000000000081526004018080602001828103825260248152602001806121cf6024913960400191505060405180910390fd5b600073ffffffffffffffffffffffffffffffffffffffff168273ffffffffffffffffffffffffffffffffffffffff161415611717576040517f08c379a00000000000000000000000000000000000000000000000000000000081526004018080602001828103825260228152602001806120d36022913960400191505060405180910390fd5b80600160008573ffffffffffffffffffffffffffffffffffffffff1673ffffffffffffffffffffffffffffffffffffffff16815260200190815260200160002060008473ffffffffffffffffffffffffffffffffffffffff1673ffffffffffffffffffffffffffffffffffffffff168152602001908152602001600020819055508173ffffffffffffffffffffffffffffffffffffffff168373ffffffffffffffffffffffffffffffffffffffff167f8c5be1e5ebec7d5bd14f71427d1e84f3dd0314c0f7b2291e5b200ac8c7c3b925836040518082815260200191505060405180910390a3505050565b600073ffffffffffffffffffffffffffffffffffffffff168373ffffffffffffffffffffffffffffffffffffffff161415611888576040517f08c379a00000000000000000000000000000000000000000000000000000000081526004018080602001828103825260258152602001806121aa6025913960400191505060405180910390fd5b600073ffffffffffffffffffffffffffffffffffffffff168273ffffffffffffffffffffffffffffffffffffffff16141561190e576040517f08c379a00000000000000000000000000000000000000000000000000000000081526004018080602001828103825260238152602001806120686023913960400191505060405180910390fd5b611919838383611fda565b611984816040518060600160405280602681526020016120f5602691396000808773ffffffffffffffffffffffffffffffffffffffff1673ffffffffffffffffffffffffffffffffffffffff16815260200190815260200160002054611ac39092919063ffffffff16565b6000808573ffffffffffffffffffffffffffffffffffffffff1673ffffffffffffffffffffffffffffffffffffffff16815260200190815260200160002081905550611a17816000808573ffffffffffffffffffffffffffffffffffffffff1673ffffffffffffffffffffffffffffffffffffffff1681526020019081526020016000205461157b90919063ffffffff16565b6000808473ffffffffffffffffffffffffffffffffffffffff1673ffffffffffffffffffffffffffffffffffffffff168152602001908152602001600020819055508173ffffffffffffffffffffffffffffffffffffffff168373ffffffffffffffffffffffffffffffffffffffff167fddf252ad1be2c89b69c2b068fc378daa952ba7f163c4a11628f55a4df523b3ef836040518082815260200191505060405180910390a3505050565b6000838311158290611b70576040517f08c379a00000000000000000000000000000000000000000000000000000000081526004018080602001828103825283818151815260200191508051906020019080838360005b83811015611b35578082015181840152602081019050611b1a565b50505050905090810190601f168015611b625780820380516001836020036101000a031916815260200191505b509250505060405180910390fd5b5060008385039050809150509392505050565b600073ffffffffffffffffffffffffffffffffffffffff168273ffffffffffffffffffffffffffffffffffffffff161415611c26576040517f08c379a000000000000000000000000000000000000000000000000000000000815260040180806020018281038252601f8152602001807f45524332303a206d696e7420746f20746865207a65726f20616464726573730081525060200191505060405180910390fd5b611c3260008383611fda565b611c478160055461157b90919063ffffffff16565b600581905550611c9e816000808573ffffffffffffffffffffffffffffffffffffffff1673ffffffffffffffffffffffffffffffffffffffff1681526020019081526020016000205461157b90919063ffffffff16565b6000808473ffffffffffffffffffffffffffffffffffffffff1673ffffffffffffffffffffffffffffffffffffffff168152602001908152602001600020819055508173ffffffffffffffffffffffffffffffffffffffff16600073ffffffffffffffffffffffffffffffffffffffff167fddf252ad1be2c89b69c2b068fc378daa952ba7f163c4a11628f55a4df523b3ef836040518082815260200191505060405180910390a35050565b600073ffffffffffffffffffffffffffffffffffffffff168273ffffffffffffffffffffffffffffffffffffffff161415611dd0576040517f08c379a00000000000000000000000000000000000000000000000000000000081526004018080602001828103825260218152602001806121436021913960400191505060405180910390fd5b611ddc82600083611fda565b611e478160405180606001604052806022815260200161208b602291396000808673ffffffffffffffffffffffffffffffffffffffff1673ffffffffffffffffffffffffffffffffffffffff16815260200190815260200160002054611ac39092919063ffffffff16565b6000808473ffffffffffffffffffffffffffffffffffffffff1673ffffffffffffffffffffffffffffffffffffffff16815260200190815260200160002081905550611e9e81600554611fdf90919063ffffffff16565b600581905550600073ffffffffffffffffffffffffffffffffffffffff168273ffffffffffffffffffffffffffffffffffffffff167fddf252ad1be2c89b69c2b068fc378daa952ba7f163c4a11628f55a4df523b3ef836040518082815260200191505060405180910390a35050565b611f16611603565b73ffffffffffffffffffffffffffffffffffffffff16600660009054906101000a900473ffffffffffffffffffffffffffffffffffffffff1673ffffffffffffffffffffffffffffffffffffffff1614611fd8576040517f08c379a00000000000000000000000000000000000000000000000000000000081526004018080602001828103825260208152602001807f4f776e61626c653a2063616c6c6572206973206e6f7420746865206f776e657281525060200191505060405180910390fd5b565b505050565b600061202183836040518060400160405280601e81526020017f536166654d6174683a207375627472616374696f6e206f766572666c6f770000815250611ac3565b905092915050565b5080546000825590600052602060002090810190612047919061204a565b50565b5b8082111561206357600081600090555060010161204b565b509056fe45524332303a207472616e7366657220746f20746865207a65726f206164647265737345524332303a206275726e20616d6f756e7420657863656564732062616c616e63654f776e61626c653a206e6577206f776e657220697320746865207a65726f206164647265737345524332303a20617070726f766520746f20746865207a65726f206164647265737345524332303a207472616e7366657220616d6f756e7420657863656564732062616c616e636545524332303a207472616e7366657220616d6f756e74206578636565647320616c6c6f77616e636545524332303a206275726e2066726f6d20746865207a65726f20616464726573734f47533a206e756d626572206f6620726563697069656e742061646472657373657320646f6573206e6f74206d6174636820746865206e756d626572206f6620746f6b656e7345524332303a207472616e736665722066726f6d20746865207a65726f206164647265737345524332303a20617070726f76652066726f6d20746865207a65726f206164647265737345524332303a206368616e676520616c6c6f77616e63652075736520696e637265617365416c6c6f77616e6365206f72206465637265617365416c6c6f77616e636520696e737465616445524332303a2064656372656173656420616c6c6f77616e63652062656c6f77207a65726fa26469706673582212204a70709f5887e300ba30c319f189d6715aaa88c8e47ef64fe1de0f056f2ca8cc64736f6c634300060c0033",
  "immutableReferences": {},
  "source": "// SPDX-License-Identifier: MIT\r\n\r\npragma solidity 0.6.12;\r\n\r\nimport \"./library.sol\";\r\n\r\n/**\r\n * @notice OGS token contract (ERC20)\r\n */\r\ncontract OGSToken is ERC20, Ownable, IOGSToken {\r\n    \r\n    using SafeERC20 for IERC20;\r\n    using SafeMath for uint;\r\n    using Address for address payable;\r\n    using SafeMath for uint256;\r\n    \r\n   /**\r\n     * @dev Emitted when an account is set mintable\r\n     */\r\n    event Mintable(address account);\r\n    /**\r\n     * @dev Emitted when an account is set unmintable\r\n     */\r\n    event Unmintable(address account);\r\n    \r\n    // @dev mintable group\r\n    mapping(address => bool) public mintableGroup;\r\n    \r\n    // @dev record mintable accounts\r\n    address [] public mintableAccounts;\r\n    \r\n    modifier onlyMintableGroup() {\r\n        require(mintableGroup[msg.sender], \"OGS: not in mintable group\");\r\n        _;\r\n    }\r\n    \r\n    /**\r\n     * @dev Initialize the contract give all tokens to the deployer\r\n     */\r\n    constructor(string memory _name, string memory _symbol, uint8 _decimals, uint256 _initialSupply) public {\r\n        name = _name;\r\n        symbol = _symbol;\r\n        decimals = _decimals;\r\n        \r\n        setMintable(owner(), true); // default mintable at constructor\r\n        _mint(_msgSender(), _initialSupply * (10 ** uint256(_decimals)));\r\n    }\r\n    \r\n    /**\r\n     * @dev set or remove address to mintable group\r\n     */\r\n    function setMintable(address account, bool allow) public override onlyOwner {\r\n        mintableGroup[account] = allow;\r\n        mintableAccounts.push(account);\r\n        \r\n        if (allow) {\r\n            emit Mintable(account);\r\n        }  else {\r\n            emit Unmintable(account);\r\n        }\r\n    }\r\n    \r\n    /**\r\n     * @dev remove all mintable account\r\n     */\r\n    function revokeAllMintable() public onlyOwner {\r\n        uint n = mintableAccounts.length;\r\n        for (uint i=0;i<n;i++) {\r\n            delete mintableGroup[mintableAccounts[i]];\r\n        }\r\n        delete mintableAccounts;\r\n    }\r\n    \r\n    /** @dev Creates `amount` tokens and assigns them to `account`, increasing\r\n     * the total supply.\r\n     *\r\n     * Emits a {Transfer} event with `from` set to the zero address.\r\n     *\r\n     * Requirements:\r\n     *\r\n     * - `to` cannot be the zero address.\r\n     */\r\n    function mint(address account, uint256 amount) public override onlyMintableGroup {\r\n        _mint(account, amount);\r\n        \r\n    }\r\n    /**\r\n     * @dev Destroys `amount` tokens from the user.\r\n     *\r\n     * See {ERC20-_burn}.\r\n     */\r\n    function burn(uint256 amount) public override onlyMintableGroup {\r\n        _burn(_msgSender(), amount);\r\n    }\r\n\r\n    /**\r\n     * @dev Batch transfer amount to recipient\r\n     * @notice that excessive gas consumption causes transaction revert\r\n     */\r\n    function batchTransfer(address[] memory recipients, uint256[] memory amounts) public {\r\n        require(recipients.length > 0, \"OGS: least one recipient address\");\r\n        require(recipients.length == amounts.length, \"OGS: number of recipient addresses does not match the number of tokens\");\r\n\r\n        for(uint256 i = 0; i < recipients.length; ++i) {\r\n            _transfer(_msgSender(), recipients[i], amounts[i]);\r\n        }\r\n    }\r\n}\r\n",
  "sourcePath": "C:\\Users\\RangerHu\\Desktop\\Ouro Auto Compound\\master\\ouro-auto-compound\\contracts\\ogs.sol",
  "compiler": {
    "name": "solc",
    "version": "0.6.12+commit.27d51765.Emscripten.clang"
  },
  "schemaVersion": "3.4.4",
  "updatedAt": "2022-01-29T15:02:17.176Z",
  "devdoc": {
    "events": {
      "Mintable(address)": {
        "details": "Emitted when an account is set mintable"
      },
      "Unmintable(address)": {
        "details": "Emitted when an account is set unmintable"
      }
    },
    "kind": "dev",
    "methods": {
      "allowance(address,address)": {
        "details": "See {IERC20-allowance}."
      },
      "approve(address,uint256)": {
        "details": "See {IERC20-approve}. Requirements: - `spender` cannot be the zero address."
      },
      "balanceOf(address)": {
        "details": "See {IERC20-balanceOf}."
      },
      "batchTransfer(address[],uint256[])": {
        "details": "Batch transfer amount to recipient"
      },
      "burn(uint256)": {
        "details": "Destroys `amount` tokens from the user. See {ERC20-_burn}."
      },
      "constructor": {
        "details": "Initialize the contract give all tokens to the deployer"
      },
      "decreaseAllowance(address,uint256)": {
        "details": "Atomically decreases the allowance granted to `spender` by the caller. This is an alternative to {approve} that can be used as a mitigation for problems described in {IERC20-approve}. Emits an {Approval} event indicating the updated allowance. Requirements: - `spender` cannot be the zero address. - `spender` must have allowance for the caller of at least `subtractedValue`."
      },
      "increaseAllowance(address,uint256)": {
        "details": "Atomically increases the allowance granted to `spender` by the caller. This is an alternative to {approve} that can be used as a mitigation for problems described in {IERC20-approve}. Emits an {Approval} event indicating the updated allowance. Requirements: - `spender` cannot be the zero address."
      },
      "mint(address,uint256)": {
        "details": "Creates `amount` tokens and assigns them to `account`, increasing the total supply. Emits a {Transfer} event with `from` set to the zero address. Requirements: - `to` cannot be the zero address."
      },
      "owner()": {
        "details": "Returns the address of the current owner."
      },
      "renounceOwnership()": {
        "details": "Leaves the contract without owner. It will not be possible to call `onlyOwner` functions anymore. Can only be called by the current owner. NOTE: Renouncing ownership will leave the contract without an owner, thereby removing any functionality that is only available to the owner."
      },
      "revokeAllMintable()": {
        "details": "remove all mintable account"
      },
      "setMintable(address,bool)": {
        "details": "set or remove address to mintable group"
      },
      "totalSupply()": {
        "details": "See {IERC20-totalSupply}."
      },
      "transfer(address,uint256)": {
        "details": "See {IERC20-transfer}. Requirements: - `recipient` cannot be the zero address. - the caller must have a balance of at least `amount`."
      },
      "transferFrom(address,address,uint256)": {
        "details": "See {IERC20-transferFrom}. Emits an {Approval} event indicating the updated allowance. This is not required by the EIP. See the note at the beginning of {ERC20}. Requirements: - `sender` and `recipient` cannot be the zero address. - `sender` must have a balance of at least `amount`. - the caller must have allowance for ``sender``'s tokens of at least `amount`."
      },
      "transferOwnership(address)": {
        "details": "Transfers ownership of the contract to a new account (`newOwner`). Can only be called by the current owner."
      }
    },
    "version": 1
  },
  "userdoc": {
    "kind": "user",
    "methods": {
      "batchTransfer(address[],uint256[])": {
        "notice": "that excessive gas consumption causes transaction revert"
      }
    },
    "notice": "OGS token contract (ERC20)",
    "version": 1
  }
}